{
	"contracts/4_smaDonate.sol": {
		"helpSmaKids": {
			"abi": [
				{
					"inputs": [],
					"stateMutability": "nonpayable",
					"type": "constructor"
				},
				{
					"anonymous": false,
					"inputs": [
						{
							"indexed": false,
							"internalType": "address",
							"name": "_from",
							"type": "address"
						},
						{
							"indexed": false,
							"internalType": "uint256",
							"name": "_amount",
							"type": "uint256"
						}
					],
					"name": "TransferReceived",
					"type": "event"
				},
				{
					"anonymous": false,
					"inputs": [
						{
							"indexed": false,
							"internalType": "address",
							"name": "_from",
							"type": "address"
						},
						{
							"indexed": false,
							"internalType": "address",
							"name": "_destAddr",
							"type": "address"
						},
						{
							"indexed": false,
							"internalType": "uint256",
							"name": "_amount",
							"type": "uint256"
						}
					],
					"name": "TransferSent",
					"type": "event"
				},
				{
					"anonymous": false,
					"inputs": [
						{
							"indexed": true,
							"internalType": "address",
							"name": "from",
							"type": "address"
						},
						{
							"indexed": false,
							"internalType": "uint256",
							"name": "timestamp",
							"type": "uint256"
						},
						{
							"indexed": false,
							"internalType": "string",
							"name": "name",
							"type": "string"
						},
						{
							"indexed": false,
							"internalType": "string",
							"name": "message",
							"type": "string"
						},
						{
							"indexed": false,
							"internalType": "uint256",
							"name": "value",
							"type": "uint256"
						}
					],
					"name": "donateAndMessage",
					"type": "event"
				},
				{
					"inputs": [],
					"name": "balance",
					"outputs": [
						{
							"internalType": "uint256",
							"name": "",
							"type": "uint256"
						}
					],
					"stateMutability": "view",
					"type": "function"
				},
				{
					"inputs": [],
					"name": "getData",
					"outputs": [
						{
							"components": [
								{
									"internalType": "address",
									"name": "from",
									"type": "address"
								},
								{
									"internalType": "uint256",
									"name": "timestamp",
									"type": "uint256"
								},
								{
									"internalType": "string",
									"name": "name",
									"type": "string"
								},
								{
									"internalType": "string",
									"name": "message",
									"type": "string"
								},
								{
									"internalType": "uint256",
									"name": "value",
									"type": "uint256"
								}
							],
							"internalType": "struct helpSmaKids.Data[]",
							"name": "",
							"type": "tuple[]"
						}
					],
					"stateMutability": "view",
					"type": "function"
				},
				{
					"inputs": [
						{
							"internalType": "uint256",
							"name": "",
							"type": "uint256"
						},
						{
							"internalType": "address",
							"name": "",
							"type": "address"
						}
					],
					"name": "getDonateByIDandAdress",
					"outputs": [
						{
							"internalType": "uint256",
							"name": "",
							"type": "uint256"
						}
					],
					"stateMutability": "view",
					"type": "function"
				},
				{
					"inputs": [],
					"name": "getTotalDonations",
					"outputs": [
						{
							"internalType": "uint256",
							"name": "",
							"type": "uint256"
						}
					],
					"stateMutability": "view",
					"type": "function"
				},
				{
					"inputs": [
						{
							"internalType": "uint256",
							"name": "_id",
							"type": "uint256"
						},
						{
							"internalType": "string",
							"name": "_name",
							"type": "string"
						},
						{
							"internalType": "string",
							"name": "_message",
							"type": "string"
						},
						{
							"internalType": "contract IERC20",
							"name": "token",
							"type": "address"
						}
					],
					"name": "helpSMA",
					"outputs": [],
					"stateMutability": "payable",
					"type": "function"
				},
				{
					"inputs": [],
					"name": "withdrawDonates",
					"outputs": [],
					"stateMutability": "nonpayable",
					"type": "function"
				},
				{
					"stateMutability": "payable",
					"type": "receive"
				}
			],
			"devdoc": {
				"kind": "dev",
				"methods": {},
				"version": 1
			},
			"evm": {
				"assembly": "    /* \"contracts/4_smaDonate.sol\":129:3201  contract helpSmaKids{... */\n  mstore(0x40, 0x80)\n    /* \"contracts/4_smaDonate.sol\":1070:1251  constructor() {... */\n  callvalue\n  dup1\n  iszero\n  tag_1\n  jumpi\n  0x00\n  dup1\n  revert\ntag_1:\n  pop\n    /* \"contracts/4_smaDonate.sol\":1233:1243  msg.sender */\n  caller\n    /* \"contracts/4_smaDonate.sol\":1217:1222  owner */\n  0x01\n  0x00\n    /* \"contracts/4_smaDonate.sol\":1217:1244  owner = payable(msg.sender) */\n  0x0100\n  exp\n  dup2\n  sload\n  dup2\n  0xffffffffffffffffffffffffffffffffffffffff\n  mul\n  not\n  and\n  swap1\n  dup4\n  0xffffffffffffffffffffffffffffffffffffffff\n  and\n  mul\n  or\n  swap1\n  sstore\n  pop\n    /* \"contracts/4_smaDonate.sol\":129:3201  contract helpSmaKids{... */\n  dataSize(sub_0)\n  dup1\n  dataOffset(sub_0)\n  0x00\n  codecopy\n  0x00\n  return\nstop\n\nsub_0: assembly {\n        /* \"contracts/4_smaDonate.sol\":129:3201  contract helpSmaKids{... */\n      mstore(0x40, 0x80)\n      jumpi(tag_1, lt(calldatasize, 0x04))\n      shr(0xe0, calldataload(0x00))\n      dup1\n      0x1a67ddb8\n      eq\n      tag_3\n      jumpi\n      dup1\n      0x3bc5de30\n      eq\n      tag_4\n      jumpi\n      dup1\n      0x62adf922\n      eq\n      tag_5\n      jumpi\n      dup1\n      0x777c658f\n      eq\n      tag_6\n      jumpi\n      dup1\n      0x8585b788\n      eq\n      tag_7\n      jumpi\n      dup1\n      0xb69ef8a8\n      eq\n      tag_8\n      jumpi\n      jump(tag_2)\n    tag_1:\n      jumpi(tag_2, calldatasize)\n        /* \"contracts/4_smaDonate.sol\":1304:1313  msg.value */\n      callvalue\n        /* \"contracts/4_smaDonate.sol\":1293:1300  balance */\n      0x03\n      0x00\n        /* \"contracts/4_smaDonate.sol\":1293:1313  balance += msg.value */\n      dup3\n      dup3\n      sload\n      tag_11\n      swap2\n      swap1\n      tag_12\n      jump\t// in\n    tag_11:\n      swap3\n      pop\n      pop\n      dup2\n      swap1\n      sstore\n      pop\n        /* \"contracts/4_smaDonate.sol\":1328:1367  TransferReceived(msg.sender, msg.value) */\n      0xf1b03f708b9c39f453fe3f0cef84164c7d6f7df836df0796e1e9c2bce6ee397e\n        /* \"contracts/4_smaDonate.sol\":1345:1355  msg.sender */\n      caller\n        /* \"contracts/4_smaDonate.sol\":1357:1366  msg.value */\n      callvalue\n        /* \"contracts/4_smaDonate.sol\":1328:1367  TransferReceived(msg.sender, msg.value) */\n      mload(0x40)\n      tag_13\n      swap3\n      swap2\n      swap1\n      tag_14\n      jump\t// in\n    tag_13:\n      mload(0x40)\n      dup1\n      swap2\n      sub\n      swap1\n      log1\n        /* \"contracts/4_smaDonate.sol\":129:3201  contract helpSmaKids{... */\n      stop\n    tag_2:\n      0x00\n      dup1\n      revert\n        /* \"contracts/4_smaDonate.sol\":1893:3004  function helpSMA(uint256 _id, string memory _name, string memory _message, IERC20 token) public payable {... */\n    tag_3:\n      tag_15\n      0x04\n      dup1\n      calldatasize\n      sub\n      dup2\n      add\n      swap1\n      tag_16\n      swap2\n      swap1\n      tag_17\n      jump\t// in\n    tag_16:\n      tag_18\n      jump\t// in\n    tag_15:\n      stop\n        /* \"contracts/4_smaDonate.sol\":1549:1633  function getData() public view returns (Data[] memory) {... */\n    tag_4:\n      callvalue\n      dup1\n      iszero\n      tag_19\n      jumpi\n      0x00\n      dup1\n      revert\n    tag_19:\n      pop\n      tag_20\n      tag_21\n      jump\t// in\n    tag_20:\n      mload(0x40)\n      tag_22\n      swap2\n      swap1\n      tag_23\n      jump\t// in\n    tag_22:\n      mload(0x40)\n      dup1\n      swap2\n      sub\n      swap1\n      return\n        /* \"contracts/4_smaDonate.sol\":3094:3199  function withdrawDonates() public  onlyOwner(){... */\n    tag_5:\n      callvalue\n      dup1\n      iszero\n      tag_24\n      jumpi\n      0x00\n      dup1\n      revert\n    tag_24:\n      pop\n      tag_25\n      tag_26\n      jump\t// in\n    tag_25:\n      stop\n        /* \"contracts/4_smaDonate.sol\":1675:1763  function getTotalDonations() view public returns(uint) {... */\n    tag_6:\n      callvalue\n      dup1\n      iszero\n      tag_27\n      jumpi\n      0x00\n      dup1\n      revert\n    tag_27:\n      pop\n      tag_28\n      tag_29\n      jump\t// in\n    tag_28:\n      mload(0x40)\n      tag_30\n      swap2\n      swap1\n      tag_31\n      jump\t// in\n    tag_30:\n      mload(0x40)\n      dup1\n      swap2\n      sub\n      swap1\n      return\n        /* \"contracts/4_smaDonate.sol\":726:797  mapping(uint => mapping(address => uint)) public getDonateByIDandAdress */\n    tag_7:\n      callvalue\n      dup1\n      iszero\n      tag_32\n      jumpi\n      0x00\n      dup1\n      revert\n    tag_32:\n      pop\n      tag_33\n      0x04\n      dup1\n      calldatasize\n      sub\n      dup2\n      add\n      swap1\n      tag_34\n      swap2\n      swap1\n      tag_35\n      jump\t// in\n    tag_34:\n      tag_36\n      jump\t// in\n    tag_33:\n      mload(0x40)\n      tag_37\n      swap2\n      swap1\n      tag_31\n      jump\t// in\n    tag_37:\n      mload(0x40)\n      dup1\n      swap2\n      sub\n      swap1\n      return\n        /* \"contracts/4_smaDonate.sol\":990:1012  uint256 public balance */\n    tag_8:\n      callvalue\n      dup1\n      iszero\n      tag_38\n      jumpi\n      0x00\n      dup1\n      revert\n    tag_38:\n      pop\n      tag_39\n      tag_40\n      jump\t// in\n    tag_39:\n      mload(0x40)\n      tag_41\n      swap2\n      swap1\n      tag_31\n      jump\t// in\n    tag_41:\n      mload(0x40)\n      dup1\n      swap2\n      sub\n      swap1\n      return\n        /* \"contracts/4_smaDonate.sol\":1893:3004  function helpSMA(uint256 _id, string memory _name, string memory _message, IERC20 token) public payable {... */\n    tag_18:\n        /* \"contracts/4_smaDonate.sol\":2090:2096  10 wei */\n      0x0a\n        /* \"contracts/4_smaDonate.sol\":2078:2087  msg.value */\n      callvalue\n        /* \"contracts/4_smaDonate.sol\":2078:2096  msg.value > 10 wei */\n      gt\n        /* \"contracts/4_smaDonate.sol\":2070:2131  require(msg.value > 10 wei, \"please deposit at least 10 wei\") */\n      tag_43\n      jumpi\n      mload(0x40)\n      0x08c379a000000000000000000000000000000000000000000000000000000000\n      dup2\n      mstore\n      0x04\n      add\n      tag_44\n      swap1\n      tag_45\n      jump\t// in\n    tag_44:\n      mload(0x40)\n      dup1\n      swap2\n      sub\n      swap1\n      revert\n    tag_43:\n        /* \"contracts/4_smaDonate.sol\":2231:2240  msg.value */\n      callvalue\n        /* \"contracts/4_smaDonate.sol\":2188:2210  getDonateByIDandAdress */\n      0x00\n        /* \"contracts/4_smaDonate.sol\":2188:2215  getDonateByIDandAdress[_id] */\n      dup1\n        /* \"contracts/4_smaDonate.sol\":2211:2214  _id */\n      dup7\n        /* \"contracts/4_smaDonate.sol\":2188:2215  getDonateByIDandAdress[_id] */\n      dup2\n      mstore\n      0x20\n      add\n      swap1\n      dup2\n      mstore\n      0x20\n      add\n      0x00\n      keccak256\n        /* \"contracts/4_smaDonate.sol\":2188:2227  getDonateByIDandAdress[_id][msg.sender] */\n      0x00\n        /* \"contracts/4_smaDonate.sol\":2216:2226  msg.sender */\n      caller\n        /* \"contracts/4_smaDonate.sol\":2188:2227  getDonateByIDandAdress[_id][msg.sender] */\n      0xffffffffffffffffffffffffffffffffffffffff\n      and\n      0xffffffffffffffffffffffffffffffffffffffff\n      and\n      dup2\n      mstore\n      0x20\n      add\n      swap1\n      dup2\n      mstore\n      0x20\n      add\n      0x00\n      keccak256\n      0x00\n        /* \"contracts/4_smaDonate.sol\":2188:2240  getDonateByIDandAdress[_id][msg.sender] += msg.value */\n      dup3\n      dup3\n      sload\n      tag_46\n      swap2\n      swap1\n      tag_12\n      jump\t// in\n    tag_46:\n      swap3\n      pop\n      pop\n      dup2\n      swap1\n      sstore\n      pop\n        /* \"contracts/4_smaDonate.sol\":2307:2316  msg.value */\n      callvalue\n        /* \"contracts/4_smaDonate.sol\":2292:2303  totalAmount */\n      0x02\n      0x00\n        /* \"contracts/4_smaDonate.sol\":2292:2316  totalAmount += msg.value */\n      dup3\n      dup3\n      sload\n      tag_47\n      swap2\n      swap1\n      tag_12\n      jump\t// in\n    tag_47:\n      swap3\n      pop\n      pop\n      dup2\n      swap1\n      sstore\n      pop\n        /* \"contracts/4_smaDonate.sol\":2362:2367  datas */\n      0x04\n        /* \"contracts/4_smaDonate.sol\":2373:2504  Data(... */\n      mload(0x40)\n      dup1\n      0xa0\n      add\n      0x40\n      mstore\n      dup1\n        /* \"contracts/4_smaDonate.sol\":2391:2401  msg.sender */\n      caller\n        /* \"contracts/4_smaDonate.sol\":2373:2504  Data(... */\n      0xffffffffffffffffffffffffffffffffffffffff\n      and\n      dup2\n      mstore\n      0x20\n      add\n        /* \"contracts/4_smaDonate.sol\":2415:2430  block.timestamp */\n      timestamp\n        /* \"contracts/4_smaDonate.sol\":2373:2504  Data(... */\n      dup2\n      mstore\n      0x20\n      add\n        /* \"contracts/4_smaDonate.sol\":2444:2449  _name */\n      dup6\n        /* \"contracts/4_smaDonate.sol\":2373:2504  Data(... */\n      dup2\n      mstore\n      0x20\n      add\n        /* \"contracts/4_smaDonate.sol\":2463:2471  _message */\n      dup5\n        /* \"contracts/4_smaDonate.sol\":2373:2504  Data(... */\n      dup2\n      mstore\n      0x20\n      add\n        /* \"contracts/4_smaDonate.sol\":2485:2494  msg.value */\n      callvalue\n        /* \"contracts/4_smaDonate.sol\":2373:2504  Data(... */\n      dup2\n      mstore\n      pop\n        /* \"contracts/4_smaDonate.sol\":2362:2505  datas.push(Data(... */\n      swap1\n      dup1\n      0x01\n      dup2\n      sload\n      add\n      dup1\n      dup3\n      sstore\n      dup1\n      swap2\n      pop\n      pop\n      0x01\n      swap1\n      sub\n      swap1\n      0x00\n      mstore\n      keccak256(0x00, 0x20)\n      swap1\n      0x05\n      mul\n      add\n      0x00\n      swap1\n      swap2\n      swap1\n      swap2\n      swap1\n      swap2\n      pop\n      0x00\n      dup3\n      add\n      mload\n      dup2\n      0x00\n      add\n      exp(0x0100, 0x00)\n      dup2\n      sload\n      dup2\n      0xffffffffffffffffffffffffffffffffffffffff\n      mul\n      not\n      and\n      swap1\n      dup4\n      0xffffffffffffffffffffffffffffffffffffffff\n      and\n      mul\n      or\n      swap1\n      sstore\n      pop\n      0x20\n      dup3\n      add\n      mload\n      dup2\n      0x01\n      add\n      sstore\n      0x40\n      dup3\n      add\n      mload\n      dup2\n      0x02\n      add\n      swap1\n      dup1\n      mload\n      swap1\n      0x20\n      add\n      swap1\n      tag_49\n      swap3\n      swap2\n      swap1\n      tag_50\n      jump\t// in\n    tag_49:\n      pop\n      0x60\n      dup3\n      add\n      mload\n      dup2\n      0x03\n      add\n      swap1\n      dup1\n      mload\n      swap1\n      0x20\n      add\n      swap1\n      tag_51\n      swap3\n      swap2\n      swap1\n      tag_50\n      jump\t// in\n    tag_51:\n      pop\n      0x80\n      dup3\n      add\n      mload\n      dup2\n      0x04\n      add\n      sstore\n      pop\n      pop\n        /* \"contracts/4_smaDonate.sol\":2620:2630  msg.sender */\n      caller\n        /* \"contracts/4_smaDonate.sol\":2590:2733  donateAndMessage(... */\n      0xffffffffffffffffffffffffffffffffffffffff\n      and\n      0xf210be66b6eb8f4db45ba1b1e04a2193e0354b15227735cca9c4b4d12a924272\n        /* \"contracts/4_smaDonate.sol\":2644:2659  block.timestamp */\n      timestamp\n        /* \"contracts/4_smaDonate.sol\":2673:2678  _name */\n      dup6\n        /* \"contracts/4_smaDonate.sol\":2692:2700  _message */\n      dup6\n        /* \"contracts/4_smaDonate.sol\":2714:2723  msg.value */\n      callvalue\n        /* \"contracts/4_smaDonate.sol\":2590:2733  donateAndMessage(... */\n      mload(0x40)\n      tag_52\n      swap5\n      swap4\n      swap3\n      swap2\n      swap1\n      tag_53\n      jump\t// in\n    tag_52:\n      mload(0x40)\n      dup1\n      swap2\n      sub\n      swap1\n      log2\n        /* \"contracts/4_smaDonate.sol\":2743:2763  uint256 erc20balance */\n      0x00\n        /* \"contracts/4_smaDonate.sol\":2766:2771  token */\n      dup2\n        /* \"contracts/4_smaDonate.sol\":2766:2781  token.balanceOf */\n      0xffffffffffffffffffffffffffffffffffffffff\n      and\n      0x70a08231\n        /* \"contracts/4_smaDonate.sol\":2790:2794  this */\n      address\n        /* \"contracts/4_smaDonate.sol\":2766:2796  token.balanceOf(address(this)) */\n      mload(0x40)\n      dup3\n      0xffffffff\n      and\n      0xe0\n      shl\n      dup2\n      mstore\n      0x04\n      add\n      tag_54\n      swap2\n      swap1\n      tag_55\n      jump\t// in\n    tag_54:\n      0x20\n      mload(0x40)\n      dup1\n      dup4\n      sub\n      dup2\n      dup7\n      dup1\n      extcodesize\n      iszero\n      dup1\n      iszero\n      tag_56\n      jumpi\n      0x00\n      dup1\n      revert\n    tag_56:\n      pop\n      gas\n      staticcall\n      iszero\n      dup1\n      iszero\n      tag_58\n      jumpi\n      returndatasize\n      0x00\n      dup1\n      returndatacopy\n      revert(0x00, returndatasize)\n    tag_58:\n      pop\n      pop\n      pop\n      pop\n      mload(0x40)\n      returndatasize\n      not(0x1f)\n      0x1f\n      dup3\n      add\n      and\n      dup3\n      add\n      dup1\n      0x40\n      mstore\n      pop\n      dup2\n      add\n      swap1\n      tag_59\n      swap2\n      swap1\n      tag_60\n      jump\t// in\n    tag_59:\n        /* \"contracts/4_smaDonate.sol\":2743:2796  uint256 erc20balance = token.balanceOf(address(this)) */\n      swap1\n      pop\n        /* \"contracts/4_smaDonate.sol\":2837:2849  erc20balance */\n      dup1\n        /* \"contracts/4_smaDonate.sol\":2814:2833  1000000000000000000 */\n      0x0de0b6b3a7640000\n        /* \"contracts/4_smaDonate.sol\":2814:2849  1000000000000000000 <= erc20balance */\n      gt\n      iszero\n        /* \"contracts/4_smaDonate.sol\":2806:2868  require(1000000000000000000 <= erc20balance, \"balance is low\") */\n      tag_61\n      jumpi\n      mload(0x40)\n      0x08c379a000000000000000000000000000000000000000000000000000000000\n      dup2\n      mstore\n      0x04\n      add\n      tag_62\n      swap1\n      tag_63\n      jump\t// in\n    tag_62:\n      mload(0x40)\n      dup1\n      swap2\n      sub\n      swap1\n      revert\n    tag_61:\n        /* \"contracts/4_smaDonate.sol\":2878:2883  token */\n      dup2\n        /* \"contracts/4_smaDonate.sol\":2878:2892  token.transfer */\n      0xffffffffffffffffffffffffffffffffffffffff\n      and\n      0xa9059cbb\n        /* \"contracts/4_smaDonate.sol\":2893:2903  msg.sender */\n      caller\n        /* \"contracts/4_smaDonate.sol\":2905:2924  1000000000000000000 */\n      0x0de0b6b3a7640000\n        /* \"contracts/4_smaDonate.sol\":2878:2925  token.transfer(msg.sender, 1000000000000000000) */\n      mload(0x40)\n      dup4\n      0xffffffff\n      and\n      0xe0\n      shl\n      dup2\n      mstore\n      0x04\n      add\n      tag_64\n      swap3\n      swap2\n      swap1\n      tag_65\n      jump\t// in\n    tag_64:\n      0x20\n      mload(0x40)\n      dup1\n      dup4\n      sub\n      dup2\n      0x00\n      dup8\n      dup1\n      extcodesize\n      iszero\n      dup1\n      iszero\n      tag_66\n      jumpi\n      0x00\n      dup1\n      revert\n    tag_66:\n      pop\n      gas\n      call\n      iszero\n      dup1\n      iszero\n      tag_68\n      jumpi\n      returndatasize\n      0x00\n      dup1\n      returndatacopy\n      revert(0x00, returndatasize)\n    tag_68:\n      pop\n      pop\n      pop\n      pop\n      mload(0x40)\n      returndatasize\n      not(0x1f)\n      0x1f\n      dup3\n      add\n      and\n      dup3\n      add\n      dup1\n      0x40\n      mstore\n      pop\n      dup2\n      add\n      swap1\n      tag_69\n      swap2\n      swap1\n      tag_70\n      jump\t// in\n    tag_69:\n      pop\n        /* \"contracts/4_smaDonate.sol\":2940:2997  TransferSent(msg.sender, msg.sender, 1000000000000000000) */\n      0xfda3a3e0e1479b43cb1c701f7576187f4c4ad80768d627387e00184302f7d88e\n        /* \"contracts/4_smaDonate.sol\":2953:2963  msg.sender */\n      caller\n        /* \"contracts/4_smaDonate.sol\":2965:2975  msg.sender */\n      caller\n        /* \"contracts/4_smaDonate.sol\":2977:2996  1000000000000000000 */\n      0x0de0b6b3a7640000\n        /* \"contracts/4_smaDonate.sol\":2940:2997  TransferSent(msg.sender, msg.sender, 1000000000000000000) */\n      mload(0x40)\n      tag_71\n      swap4\n      swap3\n      swap2\n      swap1\n      tag_72\n      jump\t// in\n    tag_71:\n      mload(0x40)\n      dup1\n      swap2\n      sub\n      swap1\n      log1\n        /* \"contracts/4_smaDonate.sol\":1997:3004  {... */\n      pop\n        /* \"contracts/4_smaDonate.sol\":1893:3004  function helpSMA(uint256 _id, string memory _name, string memory _message, IERC20 token) public payable {... */\n      pop\n      pop\n      pop\n      pop\n      jump\t// out\n        /* \"contracts/4_smaDonate.sol\":1549:1633  function getData() public view returns (Data[] memory) {... */\n    tag_21:\n        /* \"contracts/4_smaDonate.sol\":1589:1602  Data[] memory */\n      0x60\n        /* \"contracts/4_smaDonate.sol\":1621:1626  datas */\n      0x04\n        /* \"contracts/4_smaDonate.sol\":1614:1626  return datas */\n      dup1\n      sload\n      dup1\n      0x20\n      mul\n      0x20\n      add\n      mload(0x40)\n      swap1\n      dup2\n      add\n      0x40\n      mstore\n      dup1\n      swap3\n      swap2\n      swap1\n      dup2\n      dup2\n      mstore\n      0x20\n      add\n      0x00\n      swap1\n    tag_74:\n      dup3\n      dup3\n      lt\n      iszero\n      tag_75\n      jumpi\n      dup4\n      dup3\n      swap1\n      0x00\n      mstore\n      keccak256(0x00, 0x20)\n      swap1\n      0x05\n      mul\n      add\n      mload(0x40)\n      dup1\n      0xa0\n      add\n      0x40\n      mstore\n      swap1\n      dup2\n      0x00\n      dup3\n      add\n      0x00\n      swap1\n      sload\n      swap1\n      0x0100\n      exp\n      swap1\n      div\n      0xffffffffffffffffffffffffffffffffffffffff\n      and\n      0xffffffffffffffffffffffffffffffffffffffff\n      and\n      0xffffffffffffffffffffffffffffffffffffffff\n      and\n      dup2\n      mstore\n      0x20\n      add\n      0x01\n      dup3\n      add\n      sload\n      dup2\n      mstore\n      0x20\n      add\n      0x02\n      dup3\n      add\n      dup1\n      sload\n      tag_77\n      swap1\n      tag_78\n      jump\t// in\n    tag_77:\n      dup1\n      0x1f\n      add\n      0x20\n      dup1\n      swap2\n      div\n      mul\n      0x20\n      add\n      mload(0x40)\n      swap1\n      dup2\n      add\n      0x40\n      mstore\n      dup1\n      swap3\n      swap2\n      swap1\n      dup2\n      dup2\n      mstore\n      0x20\n      add\n      dup3\n      dup1\n      sload\n      tag_79\n      swap1\n      tag_78\n      jump\t// in\n    tag_79:\n      dup1\n      iszero\n      tag_80\n      jumpi\n      dup1\n      0x1f\n      lt\n      tag_81\n      jumpi\n      0x0100\n      dup1\n      dup4\n      sload\n      div\n      mul\n      dup4\n      mstore\n      swap2\n      0x20\n      add\n      swap2\n      jump(tag_80)\n    tag_81:\n      dup3\n      add\n      swap2\n      swap1\n      0x00\n      mstore\n      keccak256(0x00, 0x20)\n      swap1\n    tag_82:\n      dup2\n      sload\n      dup2\n      mstore\n      swap1\n      0x01\n      add\n      swap1\n      0x20\n      add\n      dup1\n      dup4\n      gt\n      tag_82\n      jumpi\n      dup3\n      swap1\n      sub\n      0x1f\n      and\n      dup3\n      add\n      swap2\n    tag_80:\n      pop\n      pop\n      pop\n      pop\n      pop\n      dup2\n      mstore\n      0x20\n      add\n      0x03\n      dup3\n      add\n      dup1\n      sload\n      tag_83\n      swap1\n      tag_78\n      jump\t// in\n    tag_83:\n      dup1\n      0x1f\n      add\n      0x20\n      dup1\n      swap2\n      div\n      mul\n      0x20\n      add\n      mload(0x40)\n      swap1\n      dup2\n      add\n      0x40\n      mstore\n      dup1\n      swap3\n      swap2\n      swap1\n      dup2\n      dup2\n      mstore\n      0x20\n      add\n      dup3\n      dup1\n      sload\n      tag_84\n      swap1\n      tag_78\n      jump\t// in\n    tag_84:\n      dup1\n      iszero\n      tag_85\n      jumpi\n      dup1\n      0x1f\n      lt\n      tag_86\n      jumpi\n      0x0100\n      dup1\n      dup4\n      sload\n      div\n      mul\n      dup4\n      mstore\n      swap2\n      0x20\n      add\n      swap2\n      jump(tag_85)\n    tag_86:\n      dup3\n      add\n      swap2\n      swap1\n      0x00\n      mstore\n      keccak256(0x00, 0x20)\n      swap1\n    tag_87:\n      dup2\n      sload\n      dup2\n      mstore\n      swap1\n      0x01\n      add\n      swap1\n      0x20\n      add\n      dup1\n      dup4\n      gt\n      tag_87\n      jumpi\n      dup3\n      swap1\n      sub\n      0x1f\n      and\n      dup3\n      add\n      swap2\n    tag_85:\n      pop\n      pop\n      pop\n      pop\n      pop\n      dup2\n      mstore\n      0x20\n      add\n      0x04\n      dup3\n      add\n      sload\n      dup2\n      mstore\n      pop\n      pop\n      dup2\n      mstore\n      0x20\n      add\n      swap1\n      0x01\n      add\n      swap1\n      jump(tag_74)\n    tag_75:\n      pop\n      pop\n      pop\n      pop\n      swap1\n      pop\n        /* \"contracts/4_smaDonate.sol\":1549:1633  function getData() public view returns (Data[] memory) {... */\n      swap1\n      jump\t// out\n        /* \"contracts/4_smaDonate.sol\":3094:3199  function withdrawDonates() public  onlyOwner(){... */\n    tag_26:\n        /* \"contracts/4_smaDonate.sol\":1462:1467  owner */\n      0x01\n      0x00\n      swap1\n      sload\n      swap1\n      0x0100\n      exp\n      swap1\n      div\n      0xffffffffffffffffffffffffffffffffffffffff\n      and\n        /* \"contracts/4_smaDonate.sol\":1448:1467  msg.sender == owner */\n      0xffffffffffffffffffffffffffffffffffffffff\n      and\n        /* \"contracts/4_smaDonate.sol\":1448:1458  msg.sender */\n      caller\n        /* \"contracts/4_smaDonate.sol\":1448:1467  msg.sender == owner */\n      0xffffffffffffffffffffffffffffffffffffffff\n      and\n      eq\n        /* \"contracts/4_smaDonate.sol\":1440:1481  require(msg.sender == owner, \"Not owner\") */\n      tag_89\n      jumpi\n      mload(0x40)\n      0x08c379a000000000000000000000000000000000000000000000000000000000\n      dup2\n      mstore\n      0x04\n      add\n      tag_90\n      swap1\n      tag_91\n      jump\t// in\n    tag_90:\n      mload(0x40)\n      dup1\n      swap2\n      sub\n      swap1\n      revert\n    tag_89:\n        /* \"contracts/4_smaDonate.sol\":3158:3163  owner */\n      0x01\n      0x00\n      swap1\n      sload\n      swap1\n      0x0100\n      exp\n      swap1\n      div\n      0xffffffffffffffffffffffffffffffffffffffff\n      and\n        /* \"contracts/4_smaDonate.sol\":3158:3168  owner.send */\n      0xffffffffffffffffffffffffffffffffffffffff\n      and\n        /* \"contracts/4_smaDonate.sol\":3158:3191  owner.send(address(this).balance) */\n      0x08fc\n        /* \"contracts/4_smaDonate.sol\":3169:3190  address(this).balance */\n      selfbalance\n        /* \"contracts/4_smaDonate.sol\":3158:3191  owner.send(address(this).balance) */\n      swap1\n      dup2\n      iszero\n      mul\n      swap1\n      mload(0x40)\n      0x00\n      mload(0x40)\n      dup1\n      dup4\n      sub\n      dup2\n      dup6\n      dup9\n      dup9\n      call\n      swap4\n      pop\n      pop\n      pop\n      pop\n        /* \"contracts/4_smaDonate.sol\":3150:3192  require(owner.send(address(this).balance)) */\n      tag_94\n      jumpi\n      0x00\n      dup1\n      revert\n    tag_94:\n        /* \"contracts/4_smaDonate.sol\":3094:3199  function withdrawDonates() public  onlyOwner(){... */\n      jump\t// out\n        /* \"contracts/4_smaDonate.sol\":1675:1763  function getTotalDonations() view public returns(uint) {... */\n    tag_29:\n        /* \"contracts/4_smaDonate.sol\":1724:1728  uint */\n      0x00\n        /* \"contracts/4_smaDonate.sol\":1747:1758  totalAmount */\n      sload(0x02)\n        /* \"contracts/4_smaDonate.sol\":1740:1758  return totalAmount */\n      swap1\n      pop\n        /* \"contracts/4_smaDonate.sol\":1675:1763  function getTotalDonations() view public returns(uint) {... */\n      swap1\n      jump\t// out\n        /* \"contracts/4_smaDonate.sol\":726:797  mapping(uint => mapping(address => uint)) public getDonateByIDandAdress */\n    tag_36:\n      mstore(0x20, 0x00)\n      dup2\n      0x00\n      mstore\n      mstore(0x20, keccak256(0x00, 0x40))\n      dup1\n      0x00\n      mstore\n      keccak256(0x00, 0x40)\n      0x00\n      swap2\n      pop\n      swap2\n      pop\n      pop\n      sload\n      dup2\n      jump\t// out\n        /* \"contracts/4_smaDonate.sol\":990:1012  uint256 public balance */\n    tag_40:\n      sload(0x03)\n      dup2\n      jump\t// out\n    tag_50:\n      dup3\n      dup1\n      sload\n      tag_96\n      swap1\n      tag_78\n      jump\t// in\n    tag_96:\n      swap1\n      0x00\n      mstore\n      keccak256(0x00, 0x20)\n      swap1\n      0x1f\n      add\n      0x20\n      swap1\n      div\n      dup2\n      add\n      swap3\n      dup3\n      tag_98\n      jumpi\n      0x00\n      dup6\n      sstore\n      jump(tag_97)\n    tag_98:\n      dup3\n      0x1f\n      lt\n      tag_99\n      jumpi\n      dup1\n      mload\n      not(0xff)\n      and\n      dup4\n      dup1\n      add\n      or\n      dup6\n      sstore\n      jump(tag_97)\n    tag_99:\n      dup3\n      dup1\n      add\n      0x01\n      add\n      dup6\n      sstore\n      dup3\n      iszero\n      tag_97\n      jumpi\n      swap2\n      dup3\n      add\n    tag_100:\n      dup3\n      dup2\n      gt\n      iszero\n      tag_101\n      jumpi\n      dup3\n      mload\n      dup3\n      sstore\n      swap2\n      0x20\n      add\n      swap2\n      swap1\n      0x01\n      add\n      swap1\n      jump(tag_100)\n    tag_101:\n    tag_97:\n      pop\n      swap1\n      pop\n      tag_102\n      swap2\n      swap1\n      tag_103\n      jump\t// in\n    tag_102:\n      pop\n      swap1\n      jump\t// out\n    tag_103:\n    tag_104:\n      dup1\n      dup3\n      gt\n      iszero\n      tag_105\n      jumpi\n      0x00\n      dup2\n      0x00\n      swap1\n      sstore\n      pop\n      0x01\n      add\n      jump(tag_104)\n    tag_105:\n      pop\n      swap1\n      jump\t// out\n        /* \"#utility.yul\":7:419   */\n    tag_107:\n        /* \"#utility.yul\":85:90   */\n      0x00\n        /* \"#utility.yul\":110:176   */\n      tag_109\n        /* \"#utility.yul\":126:175   */\n      tag_110\n        /* \"#utility.yul\":168:174   */\n      dup5\n        /* \"#utility.yul\":126:175   */\n      tag_111\n      jump\t// in\n    tag_110:\n        /* \"#utility.yul\":110:176   */\n      tag_112\n      jump\t// in\n    tag_109:\n        /* \"#utility.yul\":101:176   */\n      swap1\n      pop\n        /* \"#utility.yul\":199:205   */\n      dup3\n        /* \"#utility.yul\":192:197   */\n      dup2\n        /* \"#utility.yul\":185:206   */\n      mstore\n        /* \"#utility.yul\":237:241   */\n      0x20\n        /* \"#utility.yul\":230:235   */\n      dup2\n        /* \"#utility.yul\":226:242   */\n      add\n        /* \"#utility.yul\":275:278   */\n      dup5\n        /* \"#utility.yul\":266:272   */\n      dup5\n        /* \"#utility.yul\":261:264   */\n      dup5\n        /* \"#utility.yul\":257:273   */\n      add\n        /* \"#utility.yul\":254:279   */\n      gt\n        /* \"#utility.yul\":251:363   */\n      iszero\n      tag_113\n      jumpi\n        /* \"#utility.yul\":282:361   */\n      tag_114\n      tag_115\n      jump\t// in\n    tag_114:\n        /* \"#utility.yul\":251:363   */\n    tag_113:\n        /* \"#utility.yul\":372:413   */\n      tag_116\n        /* \"#utility.yul\":406:412   */\n      dup5\n        /* \"#utility.yul\":401:404   */\n      dup3\n        /* \"#utility.yul\":396:399   */\n      dup6\n        /* \"#utility.yul\":372:413   */\n      tag_117\n      jump\t// in\n    tag_116:\n        /* \"#utility.yul\":91:419   */\n      pop\n        /* \"#utility.yul\":7:419   */\n      swap4\n      swap3\n      pop\n      pop\n      pop\n      jump\t// out\n        /* \"#utility.yul\":425:564   */\n    tag_118:\n        /* \"#utility.yul\":471:476   */\n      0x00\n        /* \"#utility.yul\":509:515   */\n      dup2\n        /* \"#utility.yul\":496:516   */\n      calldataload\n        /* \"#utility.yul\":487:516   */\n      swap1\n      pop\n        /* \"#utility.yul\":525:558   */\n      tag_120\n        /* \"#utility.yul\":552:557   */\n      dup2\n        /* \"#utility.yul\":525:558   */\n      tag_121\n      jump\t// in\n    tag_120:\n        /* \"#utility.yul\":425:564   */\n      swap3\n      swap2\n      pop\n      pop\n      jump\t// out\n        /* \"#utility.yul\":570:707   */\n    tag_122:\n        /* \"#utility.yul\":624:629   */\n      0x00\n        /* \"#utility.yul\":655:661   */\n      dup2\n        /* \"#utility.yul\":649:662   */\n      mload\n        /* \"#utility.yul\":640:662   */\n      swap1\n      pop\n        /* \"#utility.yul\":671:701   */\n      tag_124\n        /* \"#utility.yul\":695:700   */\n      dup2\n        /* \"#utility.yul\":671:701   */\n      tag_125\n      jump\t// in\n    tag_124:\n        /* \"#utility.yul\":570:707   */\n      swap3\n      swap2\n      pop\n      pop\n      jump\t// out\n        /* \"#utility.yul\":713:878   */\n    tag_126:\n        /* \"#utility.yul\":772:777   */\n      0x00\n        /* \"#utility.yul\":810:816   */\n      dup2\n        /* \"#utility.yul\":797:817   */\n      calldataload\n        /* \"#utility.yul\":788:817   */\n      swap1\n      pop\n        /* \"#utility.yul\":826:872   */\n      tag_128\n        /* \"#utility.yul\":866:871   */\n      dup2\n        /* \"#utility.yul\":826:872   */\n      tag_129\n      jump\t// in\n    tag_128:\n        /* \"#utility.yul\":713:878   */\n      swap3\n      swap2\n      pop\n      pop\n      jump\t// out\n        /* \"#utility.yul\":898:1238   */\n    tag_130:\n        /* \"#utility.yul\":954:959   */\n      0x00\n        /* \"#utility.yul\":1003:1006   */\n      dup3\n        /* \"#utility.yul\":996:1000   */\n      0x1f\n        /* \"#utility.yul\":988:994   */\n      dup4\n        /* \"#utility.yul\":984:1001   */\n      add\n        /* \"#utility.yul\":980:1007   */\n      slt\n        /* \"#utility.yul\":970:1092   */\n      tag_132\n      jumpi\n        /* \"#utility.yul\":1011:1090   */\n      tag_133\n      tag_134\n      jump\t// in\n    tag_133:\n        /* \"#utility.yul\":970:1092   */\n    tag_132:\n        /* \"#utility.yul\":1128:1134   */\n      dup2\n        /* \"#utility.yul\":1115:1135   */\n      calldataload\n        /* \"#utility.yul\":1153:1232   */\n      tag_135\n        /* \"#utility.yul\":1228:1231   */\n      dup5\n        /* \"#utility.yul\":1220:1226   */\n      dup3\n        /* \"#utility.yul\":1213:1217   */\n      0x20\n        /* \"#utility.yul\":1205:1211   */\n      dup7\n        /* \"#utility.yul\":1201:1218   */\n      add\n        /* \"#utility.yul\":1153:1232   */\n      tag_107\n      jump\t// in\n    tag_135:\n        /* \"#utility.yul\":1144:1232   */\n      swap2\n      pop\n        /* \"#utility.yul\":960:1238   */\n      pop\n        /* \"#utility.yul\":898:1238   */\n      swap3\n      swap2\n      pop\n      pop\n      jump\t// out\n        /* \"#utility.yul\":1244:1383   */\n    tag_136:\n        /* \"#utility.yul\":1290:1295   */\n      0x00\n        /* \"#utility.yul\":1328:1334   */\n      dup2\n        /* \"#utility.yul\":1315:1335   */\n      calldataload\n        /* \"#utility.yul\":1306:1335   */\n      swap1\n      pop\n        /* \"#utility.yul\":1344:1377   */\n      tag_138\n        /* \"#utility.yul\":1371:1376   */\n      dup2\n        /* \"#utility.yul\":1344:1377   */\n      tag_139\n      jump\t// in\n    tag_138:\n        /* \"#utility.yul\":1244:1383   */\n      swap3\n      swap2\n      pop\n      pop\n      jump\t// out\n        /* \"#utility.yul\":1389:1532   */\n    tag_140:\n        /* \"#utility.yul\":1446:1451   */\n      0x00\n        /* \"#utility.yul\":1477:1483   */\n      dup2\n        /* \"#utility.yul\":1471:1484   */\n      mload\n        /* \"#utility.yul\":1462:1484   */\n      swap1\n      pop\n        /* \"#utility.yul\":1493:1526   */\n      tag_142\n        /* \"#utility.yul\":1520:1525   */\n      dup2\n        /* \"#utility.yul\":1493:1526   */\n      tag_139\n      jump\t// in\n    tag_142:\n        /* \"#utility.yul\":1389:1532   */\n      swap3\n      swap2\n      pop\n      pop\n      jump\t// out\n        /* \"#utility.yul\":1538:1883   */\n    tag_70:\n        /* \"#utility.yul\":1605:1611   */\n      0x00\n        /* \"#utility.yul\":1654:1656   */\n      0x20\n        /* \"#utility.yul\":1642:1651   */\n      dup3\n        /* \"#utility.yul\":1633:1640   */\n      dup5\n        /* \"#utility.yul\":1629:1652   */\n      sub\n        /* \"#utility.yul\":1625:1657   */\n      slt\n        /* \"#utility.yul\":1622:1741   */\n      iszero\n      tag_144\n      jumpi\n        /* \"#utility.yul\":1660:1739   */\n      tag_145\n      tag_146\n      jump\t// in\n    tag_145:\n        /* \"#utility.yul\":1622:1741   */\n    tag_144:\n        /* \"#utility.yul\":1780:1781   */\n      0x00\n        /* \"#utility.yul\":1805:1866   */\n      tag_147\n        /* \"#utility.yul\":1858:1865   */\n      dup5\n        /* \"#utility.yul\":1849:1855   */\n      dup3\n        /* \"#utility.yul\":1838:1847   */\n      dup6\n        /* \"#utility.yul\":1834:1856   */\n      add\n        /* \"#utility.yul\":1805:1866   */\n      tag_122\n      jump\t// in\n    tag_147:\n        /* \"#utility.yul\":1795:1866   */\n      swap2\n      pop\n        /* \"#utility.yul\":1751:1876   */\n      pop\n        /* \"#utility.yul\":1538:1883   */\n      swap3\n      swap2\n      pop\n      pop\n      jump\t// out\n        /* \"#utility.yul\":1889:2240   */\n    tag_60:\n        /* \"#utility.yul\":1959:1965   */\n      0x00\n        /* \"#utility.yul\":2008:2010   */\n      0x20\n        /* \"#utility.yul\":1996:2005   */\n      dup3\n        /* \"#utility.yul\":1987:1994   */\n      dup5\n        /* \"#utility.yul\":1983:2006   */\n      sub\n        /* \"#utility.yul\":1979:2011   */\n      slt\n        /* \"#utility.yul\":1976:2095   */\n      iszero\n      tag_149\n      jumpi\n        /* \"#utility.yul\":2014:2093   */\n      tag_150\n      tag_146\n      jump\t// in\n    tag_150:\n        /* \"#utility.yul\":1976:2095   */\n    tag_149:\n        /* \"#utility.yul\":2134:2135   */\n      0x00\n        /* \"#utility.yul\":2159:2223   */\n      tag_151\n        /* \"#utility.yul\":2215:2222   */\n      dup5\n        /* \"#utility.yul\":2206:2212   */\n      dup3\n        /* \"#utility.yul\":2195:2204   */\n      dup6\n        /* \"#utility.yul\":2191:2213   */\n      add\n        /* \"#utility.yul\":2159:2223   */\n      tag_140\n      jump\t// in\n    tag_151:\n        /* \"#utility.yul\":2149:2223   */\n      swap2\n      pop\n        /* \"#utility.yul\":2105:2233   */\n      pop\n        /* \"#utility.yul\":1889:2240   */\n      swap3\n      swap2\n      pop\n      pop\n      jump\t// out\n        /* \"#utility.yul\":2246:2720   */\n    tag_35:\n        /* \"#utility.yul\":2314:2320   */\n      0x00\n        /* \"#utility.yul\":2322:2328   */\n      dup1\n        /* \"#utility.yul\":2371:2373   */\n      0x40\n        /* \"#utility.yul\":2359:2368   */\n      dup4\n        /* \"#utility.yul\":2350:2357   */\n      dup6\n        /* \"#utility.yul\":2346:2369   */\n      sub\n        /* \"#utility.yul\":2342:2374   */\n      slt\n        /* \"#utility.yul\":2339:2458   */\n      iszero\n      tag_153\n      jumpi\n        /* \"#utility.yul\":2377:2456   */\n      tag_154\n      tag_146\n      jump\t// in\n    tag_154:\n        /* \"#utility.yul\":2339:2458   */\n    tag_153:\n        /* \"#utility.yul\":2497:2498   */\n      0x00\n        /* \"#utility.yul\":2522:2575   */\n      tag_155\n        /* \"#utility.yul\":2567:2574   */\n      dup6\n        /* \"#utility.yul\":2558:2564   */\n      dup3\n        /* \"#utility.yul\":2547:2556   */\n      dup7\n        /* \"#utility.yul\":2543:2565   */\n      add\n        /* \"#utility.yul\":2522:2575   */\n      tag_136\n      jump\t// in\n    tag_155:\n        /* \"#utility.yul\":2512:2575   */\n      swap3\n      pop\n        /* \"#utility.yul\":2468:2585   */\n      pop\n        /* \"#utility.yul\":2624:2626   */\n      0x20\n        /* \"#utility.yul\":2650:2703   */\n      tag_156\n        /* \"#utility.yul\":2695:2702   */\n      dup6\n        /* \"#utility.yul\":2686:2692   */\n      dup3\n        /* \"#utility.yul\":2675:2684   */\n      dup7\n        /* \"#utility.yul\":2671:2693   */\n      add\n        /* \"#utility.yul\":2650:2703   */\n      tag_118\n      jump\t// in\n    tag_156:\n        /* \"#utility.yul\":2640:2703   */\n      swap2\n      pop\n        /* \"#utility.yul\":2595:2713   */\n      pop\n        /* \"#utility.yul\":2246:2720   */\n      swap3\n      pop\n      swap3\n      swap1\n      pop\n      jump\t// out\n        /* \"#utility.yul\":2726:3877   */\n    tag_17:\n        /* \"#utility.yul\":2845:2851   */\n      0x00\n        /* \"#utility.yul\":2853:2859   */\n      dup1\n        /* \"#utility.yul\":2861:2867   */\n      0x00\n        /* \"#utility.yul\":2869:2875   */\n      dup1\n        /* \"#utility.yul\":2918:2921   */\n      0x80\n        /* \"#utility.yul\":2906:2915   */\n      dup6\n        /* \"#utility.yul\":2897:2904   */\n      dup8\n        /* \"#utility.yul\":2893:2916   */\n      sub\n        /* \"#utility.yul\":2889:2922   */\n      slt\n        /* \"#utility.yul\":2886:3006   */\n      iszero\n      tag_158\n      jumpi\n        /* \"#utility.yul\":2925:3004   */\n      tag_159\n      tag_146\n      jump\t// in\n    tag_159:\n        /* \"#utility.yul\":2886:3006   */\n    tag_158:\n        /* \"#utility.yul\":3045:3046   */\n      0x00\n        /* \"#utility.yul\":3070:3123   */\n      tag_160\n        /* \"#utility.yul\":3115:3122   */\n      dup8\n        /* \"#utility.yul\":3106:3112   */\n      dup3\n        /* \"#utility.yul\":3095:3104   */\n      dup9\n        /* \"#utility.yul\":3091:3113   */\n      add\n        /* \"#utility.yul\":3070:3123   */\n      tag_136\n      jump\t// in\n    tag_160:\n        /* \"#utility.yul\":3060:3123   */\n      swap5\n      pop\n        /* \"#utility.yul\":3016:3133   */\n      pop\n        /* \"#utility.yul\":3200:3202   */\n      0x20\n        /* \"#utility.yul\":3189:3198   */\n      dup6\n        /* \"#utility.yul\":3185:3203   */\n      add\n        /* \"#utility.yul\":3172:3204   */\n      calldataload\n        /* \"#utility.yul\":3231:3249   */\n      0xffffffffffffffff\n        /* \"#utility.yul\":3223:3229   */\n      dup2\n        /* \"#utility.yul\":3220:3250   */\n      gt\n        /* \"#utility.yul\":3217:3334   */\n      iszero\n      tag_161\n      jumpi\n        /* \"#utility.yul\":3253:3332   */\n      tag_162\n      tag_163\n      jump\t// in\n    tag_162:\n        /* \"#utility.yul\":3217:3334   */\n    tag_161:\n        /* \"#utility.yul\":3358:3421   */\n      tag_164\n        /* \"#utility.yul\":3413:3420   */\n      dup8\n        /* \"#utility.yul\":3404:3410   */\n      dup3\n        /* \"#utility.yul\":3393:3402   */\n      dup9\n        /* \"#utility.yul\":3389:3411   */\n      add\n        /* \"#utility.yul\":3358:3421   */\n      tag_130\n      jump\t// in\n    tag_164:\n        /* \"#utility.yul\":3348:3421   */\n      swap4\n      pop\n        /* \"#utility.yul\":3143:3431   */\n      pop\n        /* \"#utility.yul\":3498:3500   */\n      0x40\n        /* \"#utility.yul\":3487:3496   */\n      dup6\n        /* \"#utility.yul\":3483:3501   */\n      add\n        /* \"#utility.yul\":3470:3502   */\n      calldataload\n        /* \"#utility.yul\":3529:3547   */\n      0xffffffffffffffff\n        /* \"#utility.yul\":3521:3527   */\n      dup2\n        /* \"#utility.yul\":3518:3548   */\n      gt\n        /* \"#utility.yul\":3515:3632   */\n      iszero\n      tag_165\n      jumpi\n        /* \"#utility.yul\":3551:3630   */\n      tag_166\n      tag_163\n      jump\t// in\n    tag_166:\n        /* \"#utility.yul\":3515:3632   */\n    tag_165:\n        /* \"#utility.yul\":3656:3719   */\n      tag_167\n        /* \"#utility.yul\":3711:3718   */\n      dup8\n        /* \"#utility.yul\":3702:3708   */\n      dup3\n        /* \"#utility.yul\":3691:3700   */\n      dup9\n        /* \"#utility.yul\":3687:3709   */\n      add\n        /* \"#utility.yul\":3656:3719   */\n      tag_130\n      jump\t// in\n    tag_167:\n        /* \"#utility.yul\":3646:3719   */\n      swap3\n      pop\n        /* \"#utility.yul\":3441:3729   */\n      pop\n        /* \"#utility.yul\":3768:3770   */\n      0x60\n        /* \"#utility.yul\":3794:3860   */\n      tag_168\n        /* \"#utility.yul\":3852:3859   */\n      dup8\n        /* \"#utility.yul\":3843:3849   */\n      dup3\n        /* \"#utility.yul\":3832:3841   */\n      dup9\n        /* \"#utility.yul\":3828:3850   */\n      add\n        /* \"#utility.yul\":3794:3860   */\n      tag_126\n      jump\t// in\n    tag_168:\n        /* \"#utility.yul\":3784:3860   */\n      swap2\n      pop\n        /* \"#utility.yul\":3739:3870   */\n      pop\n        /* \"#utility.yul\":2726:3877   */\n      swap3\n      swap6\n      swap2\n      swap5\n      pop\n      swap3\n      pop\n      jump\t// out\n        /* \"#utility.yul\":3883:4123   */\n    tag_169:\n        /* \"#utility.yul\":3994:4004   */\n      0x00\n        /* \"#utility.yul\":4029:4117   */\n      tag_171\n        /* \"#utility.yul\":4113:4116   */\n      dup4\n        /* \"#utility.yul\":4105:4111   */\n      dup4\n        /* \"#utility.yul\":4029:4117   */\n      tag_172\n      jump\t// in\n    tag_171:\n        /* \"#utility.yul\":4015:4117   */\n      swap1\n      pop\n        /* \"#utility.yul\":3883:4123   */\n      swap3\n      swap2\n      pop\n      pop\n      jump\t// out\n        /* \"#utility.yul\":4129:4237   */\n    tag_173:\n        /* \"#utility.yul\":4206:4230   */\n      tag_175\n        /* \"#utility.yul\":4224:4229   */\n      dup2\n        /* \"#utility.yul\":4206:4230   */\n      tag_176\n      jump\t// in\n    tag_175:\n        /* \"#utility.yul\":4201:4204   */\n      dup3\n        /* \"#utility.yul\":4194:4231   */\n      mstore\n        /* \"#utility.yul\":4129:4237   */\n      pop\n      pop\n      jump\t// out\n        /* \"#utility.yul\":4243:4361   */\n    tag_177:\n        /* \"#utility.yul\":4330:4354   */\n      tag_179\n        /* \"#utility.yul\":4348:4353   */\n      dup2\n        /* \"#utility.yul\":4330:4354   */\n      tag_176\n      jump\t// in\n    tag_179:\n        /* \"#utility.yul\":4325:4328   */\n      dup3\n        /* \"#utility.yul\":4318:4355   */\n      mstore\n        /* \"#utility.yul\":4243:4361   */\n      pop\n      pop\n      jump\t// out\n        /* \"#utility.yul\":4429:5508   */\n    tag_180:\n        /* \"#utility.yul\":4590:4593   */\n      0x00\n        /* \"#utility.yul\":4619:4694   */\n      tag_182\n        /* \"#utility.yul\":4688:4693   */\n      dup3\n        /* \"#utility.yul\":4619:4694   */\n      tag_183\n      jump\t// in\n    tag_182:\n        /* \"#utility.yul\":4710:4817   */\n      tag_184\n        /* \"#utility.yul\":4810:4816   */\n      dup2\n        /* \"#utility.yul\":4805:4808   */\n      dup6\n        /* \"#utility.yul\":4710:4817   */\n      tag_185\n      jump\t// in\n    tag_184:\n        /* \"#utility.yul\":4703:4817   */\n      swap4\n      pop\n        /* \"#utility.yul\":4843:4846   */\n      dup4\n        /* \"#utility.yul\":4888:4892   */\n      0x20\n        /* \"#utility.yul\":4880:4886   */\n      dup3\n        /* \"#utility.yul\":4876:4893   */\n      mul\n        /* \"#utility.yul\":4871:4874   */\n      dup6\n        /* \"#utility.yul\":4867:4894   */\n      add\n        /* \"#utility.yul\":4918:4995   */\n      tag_186\n        /* \"#utility.yul\":4989:4994   */\n      dup6\n        /* \"#utility.yul\":4918:4995   */\n      tag_187\n      jump\t// in\n    tag_186:\n        /* \"#utility.yul\":5018:5025   */\n      dup1\n        /* \"#utility.yul\":5049:5050   */\n      0x00\n        /* \"#utility.yul\":5034:5463   */\n    tag_188:\n        /* \"#utility.yul\":5059:5065   */\n      dup6\n        /* \"#utility.yul\":5056:5057   */\n      dup2\n        /* \"#utility.yul\":5053:5066   */\n      lt\n        /* \"#utility.yul\":5034:5463   */\n      iszero\n      tag_190\n      jumpi\n        /* \"#utility.yul\":5130:5139   */\n      dup5\n        /* \"#utility.yul\":5124:5128   */\n      dup5\n        /* \"#utility.yul\":5120:5140   */\n      sub\n        /* \"#utility.yul\":5115:5118   */\n      dup10\n        /* \"#utility.yul\":5108:5141   */\n      mstore\n        /* \"#utility.yul\":5181:5187   */\n      dup2\n        /* \"#utility.yul\":5175:5188   */\n      mload\n        /* \"#utility.yul\":5209:5315   */\n      tag_191\n        /* \"#utility.yul\":5310:5314   */\n      dup6\n        /* \"#utility.yul\":5295:5308   */\n      dup3\n        /* \"#utility.yul\":5209:5315   */\n      tag_169\n      jump\t// in\n    tag_191:\n        /* \"#utility.yul\":5201:5315   */\n      swap5\n      pop\n        /* \"#utility.yul\":5338:5419   */\n      tag_192\n        /* \"#utility.yul\":5412:5418   */\n      dup4\n        /* \"#utility.yul\":5338:5419   */\n      tag_193\n      jump\t// in\n    tag_192:\n        /* \"#utility.yul\":5328:5419   */\n      swap3\n      pop\n        /* \"#utility.yul\":5448:5452   */\n      0x20\n        /* \"#utility.yul\":5443:5446   */\n      dup11\n        /* \"#utility.yul\":5439:5453   */\n      add\n        /* \"#utility.yul\":5432:5453   */\n      swap10\n      pop\n        /* \"#utility.yul\":5094:5463   */\n      pop\n        /* \"#utility.yul\":5081:5082   */\n      0x01\n        /* \"#utility.yul\":5078:5079   */\n      dup2\n        /* \"#utility.yul\":5074:5083   */\n      add\n        /* \"#utility.yul\":5069:5083   */\n      swap1\n      pop\n        /* \"#utility.yul\":5034:5463   */\n      jump(tag_188)\n    tag_190:\n        /* \"#utility.yul\":5038:5052   */\n      pop\n        /* \"#utility.yul\":5479:5483   */\n      dup3\n        /* \"#utility.yul\":5472:5483   */\n      swap8\n      pop\n        /* \"#utility.yul\":5499:5502   */\n      dup8\n        /* \"#utility.yul\":5492:5502   */\n      swap6\n      pop\n        /* \"#utility.yul\":4595:5508   */\n      pop\n      pop\n      pop\n      pop\n      pop\n        /* \"#utility.yul\":4429:5508   */\n      swap3\n      swap2\n      pop\n      pop\n      jump\t// out\n        /* \"#utility.yul\":5514:5697   */\n    tag_194:\n        /* \"#utility.yul\":5627:5690   */\n      tag_196\n        /* \"#utility.yul\":5684:5689   */\n      dup2\n        /* \"#utility.yul\":5627:5690   */\n      tag_197\n      jump\t// in\n    tag_196:\n        /* \"#utility.yul\":5622:5625   */\n      dup3\n        /* \"#utility.yul\":5615:5691   */\n      mstore\n        /* \"#utility.yul\":5514:5697   */\n      pop\n      pop\n      jump\t// out\n        /* \"#utility.yul\":5703:6047   */\n    tag_198:\n        /* \"#utility.yul\":5781:5784   */\n      0x00\n        /* \"#utility.yul\":5809:5848   */\n      tag_200\n        /* \"#utility.yul\":5842:5847   */\n      dup3\n        /* \"#utility.yul\":5809:5848   */\n      tag_201\n      jump\t// in\n    tag_200:\n        /* \"#utility.yul\":5864:5925   */\n      tag_202\n        /* \"#utility.yul\":5918:5924   */\n      dup2\n        /* \"#utility.yul\":5913:5916   */\n      dup6\n        /* \"#utility.yul\":5864:5925   */\n      tag_203\n      jump\t// in\n    tag_202:\n        /* \"#utility.yul\":5857:5925   */\n      swap4\n      pop\n        /* \"#utility.yul\":5934:5986   */\n      tag_204\n        /* \"#utility.yul\":5979:5985   */\n      dup2\n        /* \"#utility.yul\":5974:5977   */\n      dup6\n        /* \"#utility.yul\":5967:5971   */\n      0x20\n        /* \"#utility.yul\":5960:5965   */\n      dup7\n        /* \"#utility.yul\":5956:5972   */\n      add\n        /* \"#utility.yul\":5934:5986   */\n      tag_205\n      jump\t// in\n    tag_204:\n        /* \"#utility.yul\":6011:6040   */\n      tag_206\n        /* \"#utility.yul\":6033:6039   */\n      dup2\n        /* \"#utility.yul\":6011:6040   */\n      tag_207\n      jump\t// in\n    tag_206:\n        /* \"#utility.yul\":6006:6009   */\n      dup5\n        /* \"#utility.yul\":6002:6041   */\n      add\n        /* \"#utility.yul\":5995:6041   */\n      swap2\n      pop\n        /* \"#utility.yul\":5785:6047   */\n      pop\n        /* \"#utility.yul\":5703:6047   */\n      swap3\n      swap2\n      pop\n      pop\n      jump\t// out\n        /* \"#utility.yul\":6053:6417   */\n    tag_208:\n        /* \"#utility.yul\":6141:6144   */\n      0x00\n        /* \"#utility.yul\":6169:6208   */\n      tag_210\n        /* \"#utility.yul\":6202:6207   */\n      dup3\n        /* \"#utility.yul\":6169:6208   */\n      tag_201\n      jump\t// in\n    tag_210:\n        /* \"#utility.yul\":6224:6295   */\n      tag_211\n        /* \"#utility.yul\":6288:6294   */\n      dup2\n        /* \"#utility.yul\":6283:6286   */\n      dup6\n        /* \"#utility.yul\":6224:6295   */\n      tag_212\n      jump\t// in\n    tag_211:\n        /* \"#utility.yul\":6217:6295   */\n      swap4\n      pop\n        /* \"#utility.yul\":6304:6356   */\n      tag_213\n        /* \"#utility.yul\":6349:6355   */\n      dup2\n        /* \"#utility.yul\":6344:6347   */\n      dup6\n        /* \"#utility.yul\":6337:6341   */\n      0x20\n        /* \"#utility.yul\":6330:6335   */\n      dup7\n        /* \"#utility.yul\":6326:6342   */\n      add\n        /* \"#utility.yul\":6304:6356   */\n      tag_205\n      jump\t// in\n    tag_213:\n        /* \"#utility.yul\":6381:6410   */\n      tag_214\n        /* \"#utility.yul\":6403:6409   */\n      dup2\n        /* \"#utility.yul\":6381:6410   */\n      tag_207\n      jump\t// in\n    tag_214:\n        /* \"#utility.yul\":6376:6379   */\n      dup5\n        /* \"#utility.yul\":6372:6411   */\n      add\n        /* \"#utility.yul\":6365:6411   */\n      swap2\n      pop\n        /* \"#utility.yul\":6145:6417   */\n      pop\n        /* \"#utility.yul\":6053:6417   */\n      swap3\n      swap2\n      pop\n      pop\n      jump\t// out\n        /* \"#utility.yul\":6423:6789   */\n    tag_215:\n        /* \"#utility.yul\":6565:6568   */\n      0x00\n        /* \"#utility.yul\":6586:6653   */\n      tag_217\n        /* \"#utility.yul\":6650:6652   */\n      0x1e\n        /* \"#utility.yul\":6645:6648   */\n      dup4\n        /* \"#utility.yul\":6586:6653   */\n      tag_212\n      jump\t// in\n    tag_217:\n        /* \"#utility.yul\":6579:6653   */\n      swap2\n      pop\n        /* \"#utility.yul\":6662:6755   */\n      tag_218\n        /* \"#utility.yul\":6751:6754   */\n      dup3\n        /* \"#utility.yul\":6662:6755   */\n      tag_219\n      jump\t// in\n    tag_218:\n        /* \"#utility.yul\":6780:6782   */\n      0x20\n        /* \"#utility.yul\":6775:6778   */\n      dup3\n        /* \"#utility.yul\":6771:6783   */\n      add\n        /* \"#utility.yul\":6764:6783   */\n      swap1\n      pop\n        /* \"#utility.yul\":6423:6789   */\n      swap2\n      swap1\n      pop\n      jump\t// out\n        /* \"#utility.yul\":6795:7161   */\n    tag_220:\n        /* \"#utility.yul\":6937:6940   */\n      0x00\n        /* \"#utility.yul\":6958:7025   */\n      tag_222\n        /* \"#utility.yul\":7022:7024   */\n      0x0e\n        /* \"#utility.yul\":7017:7020   */\n      dup4\n        /* \"#utility.yul\":6958:7025   */\n      tag_212\n      jump\t// in\n    tag_222:\n        /* \"#utility.yul\":6951:7025   */\n      swap2\n      pop\n        /* \"#utility.yul\":7034:7127   */\n      tag_223\n        /* \"#utility.yul\":7123:7126   */\n      dup3\n        /* \"#utility.yul\":7034:7127   */\n      tag_224\n      jump\t// in\n    tag_223:\n        /* \"#utility.yul\":7152:7154   */\n      0x20\n        /* \"#utility.yul\":7147:7150   */\n      dup3\n        /* \"#utility.yul\":7143:7155   */\n      add\n        /* \"#utility.yul\":7136:7155   */\n      swap1\n      pop\n        /* \"#utility.yul\":6795:7161   */\n      swap2\n      swap1\n      pop\n      jump\t// out\n        /* \"#utility.yul\":7167:7532   */\n    tag_225:\n        /* \"#utility.yul\":7309:7312   */\n      0x00\n        /* \"#utility.yul\":7330:7396   */\n      tag_227\n        /* \"#utility.yul\":7394:7395   */\n      0x09\n        /* \"#utility.yul\":7389:7392   */\n      dup4\n        /* \"#utility.yul\":7330:7396   */\n      tag_212\n      jump\t// in\n    tag_227:\n        /* \"#utility.yul\":7323:7396   */\n      swap2\n      pop\n        /* \"#utility.yul\":7405:7498   */\n      tag_228\n        /* \"#utility.yul\":7494:7497   */\n      dup3\n        /* \"#utility.yul\":7405:7498   */\n      tag_229\n      jump\t// in\n    tag_228:\n        /* \"#utility.yul\":7523:7525   */\n      0x20\n        /* \"#utility.yul\":7518:7521   */\n      dup3\n        /* \"#utility.yul\":7514:7526   */\n      add\n        /* \"#utility.yul\":7507:7526   */\n      swap1\n      pop\n        /* \"#utility.yul\":7167:7532   */\n      swap2\n      swap1\n      pop\n      jump\t// out\n        /* \"#utility.yul\":7596:8786   */\n    tag_172:\n        /* \"#utility.yul\":7697:7700   */\n      0x00\n        /* \"#utility.yul\":7733:7737   */\n      0xa0\n        /* \"#utility.yul\":7728:7731   */\n      dup4\n        /* \"#utility.yul\":7724:7738   */\n      add\n        /* \"#utility.yul\":7820:7824   */\n      0x00\n        /* \"#utility.yul\":7813:7818   */\n      dup4\n        /* \"#utility.yul\":7809:7825   */\n      add\n        /* \"#utility.yul\":7803:7826   */\n      mload\n        /* \"#utility.yul\":7839:7902   */\n      tag_231\n        /* \"#utility.yul\":7896:7900   */\n      0x00\n        /* \"#utility.yul\":7891:7894   */\n      dup7\n        /* \"#utility.yul\":7887:7901   */\n      add\n        /* \"#utility.yul\":7873:7885   */\n      dup3\n        /* \"#utility.yul\":7839:7902   */\n      tag_173\n      jump\t// in\n    tag_231:\n        /* \"#utility.yul\":7748:7912   */\n      pop\n        /* \"#utility.yul\":7999:8003   */\n      0x20\n        /* \"#utility.yul\":7992:7997   */\n      dup4\n        /* \"#utility.yul\":7988:8004   */\n      add\n        /* \"#utility.yul\":7982:8005   */\n      mload\n        /* \"#utility.yul\":8018:8081   */\n      tag_232\n        /* \"#utility.yul\":8075:8079   */\n      0x20\n        /* \"#utility.yul\":8070:8073   */\n      dup7\n        /* \"#utility.yul\":8066:8080   */\n      add\n        /* \"#utility.yul\":8052:8064   */\n      dup3\n        /* \"#utility.yul\":8018:8081   */\n      tag_233\n      jump\t// in\n    tag_232:\n        /* \"#utility.yul\":7922:8091   */\n      pop\n        /* \"#utility.yul\":8173:8177   */\n      0x40\n        /* \"#utility.yul\":8166:8171   */\n      dup4\n        /* \"#utility.yul\":8162:8178   */\n      add\n        /* \"#utility.yul\":8156:8179   */\n      mload\n        /* \"#utility.yul\":8226:8229   */\n      dup5\n        /* \"#utility.yul\":8220:8224   */\n      dup3\n        /* \"#utility.yul\":8216:8230   */\n      sub\n        /* \"#utility.yul\":8209:8213   */\n      0x40\n        /* \"#utility.yul\":8204:8207   */\n      dup7\n        /* \"#utility.yul\":8200:8214   */\n      add\n        /* \"#utility.yul\":8193:8231   */\n      mstore\n        /* \"#utility.yul\":8252:8325   */\n      tag_234\n        /* \"#utility.yul\":8320:8324   */\n      dup3\n        /* \"#utility.yul\":8306:8318   */\n      dup3\n        /* \"#utility.yul\":8252:8325   */\n      tag_198\n      jump\t// in\n    tag_234:\n        /* \"#utility.yul\":8244:8325   */\n      swap2\n      pop\n        /* \"#utility.yul\":8101:8336   */\n      pop\n        /* \"#utility.yul\":8421:8425   */\n      0x60\n        /* \"#utility.yul\":8414:8419   */\n      dup4\n        /* \"#utility.yul\":8410:8426   */\n      add\n        /* \"#utility.yul\":8404:8427   */\n      mload\n        /* \"#utility.yul\":8474:8477   */\n      dup5\n        /* \"#utility.yul\":8468:8472   */\n      dup3\n        /* \"#utility.yul\":8464:8478   */\n      sub\n        /* \"#utility.yul\":8457:8461   */\n      0x60\n        /* \"#utility.yul\":8452:8455   */\n      dup7\n        /* \"#utility.yul\":8448:8462   */\n      add\n        /* \"#utility.yul\":8441:8479   */\n      mstore\n        /* \"#utility.yul\":8500:8573   */\n      tag_235\n        /* \"#utility.yul\":8568:8572   */\n      dup3\n        /* \"#utility.yul\":8554:8566   */\n      dup3\n        /* \"#utility.yul\":8500:8573   */\n      tag_198\n      jump\t// in\n    tag_235:\n        /* \"#utility.yul\":8492:8573   */\n      swap2\n      pop\n        /* \"#utility.yul\":8346:8584   */\n      pop\n        /* \"#utility.yul\":8667:8671   */\n      0x80\n        /* \"#utility.yul\":8660:8665   */\n      dup4\n        /* \"#utility.yul\":8656:8672   */\n      add\n        /* \"#utility.yul\":8650:8673   */\n      mload\n        /* \"#utility.yul\":8686:8749   */\n      tag_236\n        /* \"#utility.yul\":8743:8747   */\n      0x80\n        /* \"#utility.yul\":8738:8741   */\n      dup7\n        /* \"#utility.yul\":8734:8748   */\n      add\n        /* \"#utility.yul\":8720:8732   */\n      dup3\n        /* \"#utility.yul\":8686:8749   */\n      tag_233\n      jump\t// in\n    tag_236:\n        /* \"#utility.yul\":8594:8759   */\n      pop\n        /* \"#utility.yul\":8776:8780   */\n      dup1\n        /* \"#utility.yul\":8769:8780   */\n      swap2\n      pop\n        /* \"#utility.yul\":7702:8786   */\n      pop\n        /* \"#utility.yul\":7596:8786   */\n      swap3\n      swap2\n      pop\n      pop\n      jump\t// out\n        /* \"#utility.yul\":8792:8900   */\n    tag_233:\n        /* \"#utility.yul\":8869:8893   */\n      tag_238\n        /* \"#utility.yul\":8887:8892   */\n      dup2\n        /* \"#utility.yul\":8869:8893   */\n      tag_239\n      jump\t// in\n    tag_238:\n        /* \"#utility.yul\":8864:8867   */\n      dup3\n        /* \"#utility.yul\":8857:8894   */\n      mstore\n        /* \"#utility.yul\":8792:8900   */\n      pop\n      pop\n      jump\t// out\n        /* \"#utility.yul\":8906:9024   */\n    tag_240:\n        /* \"#utility.yul\":8993:9017   */\n      tag_242\n        /* \"#utility.yul\":9011:9016   */\n      dup2\n        /* \"#utility.yul\":8993:9017   */\n      tag_239\n      jump\t// in\n    tag_242:\n        /* \"#utility.yul\":8988:8991   */\n      dup3\n        /* \"#utility.yul\":8981:9018   */\n      mstore\n        /* \"#utility.yul\":8906:9024   */\n      pop\n      pop\n      jump\t// out\n        /* \"#utility.yul\":9030:9252   */\n    tag_55:\n        /* \"#utility.yul\":9123:9127   */\n      0x00\n        /* \"#utility.yul\":9161:9163   */\n      0x20\n        /* \"#utility.yul\":9150:9159   */\n      dup3\n        /* \"#utility.yul\":9146:9164   */\n      add\n        /* \"#utility.yul\":9138:9164   */\n      swap1\n      pop\n        /* \"#utility.yul\":9174:9245   */\n      tag_244\n        /* \"#utility.yul\":9242:9243   */\n      0x00\n        /* \"#utility.yul\":9231:9240   */\n      dup4\n        /* \"#utility.yul\":9227:9244   */\n      add\n        /* \"#utility.yul\":9218:9224   */\n      dup5\n        /* \"#utility.yul\":9174:9245   */\n      tag_177\n      jump\t// in\n    tag_244:\n        /* \"#utility.yul\":9030:9252   */\n      swap3\n      swap2\n      pop\n      pop\n      jump\t// out\n        /* \"#utility.yul\":9258:9752   */\n    tag_72:\n        /* \"#utility.yul\":9433:9437   */\n      0x00\n        /* \"#utility.yul\":9471:9473   */\n      0x60\n        /* \"#utility.yul\":9460:9469   */\n      dup3\n        /* \"#utility.yul\":9456:9474   */\n      add\n        /* \"#utility.yul\":9448:9474   */\n      swap1\n      pop\n        /* \"#utility.yul\":9484:9555   */\n      tag_246\n        /* \"#utility.yul\":9552:9553   */\n      0x00\n        /* \"#utility.yul\":9541:9550   */\n      dup4\n        /* \"#utility.yul\":9537:9554   */\n      add\n        /* \"#utility.yul\":9528:9534   */\n      dup7\n        /* \"#utility.yul\":9484:9555   */\n      tag_177\n      jump\t// in\n    tag_246:\n        /* \"#utility.yul\":9565:9637   */\n      tag_247\n        /* \"#utility.yul\":9633:9635   */\n      0x20\n        /* \"#utility.yul\":9622:9631   */\n      dup4\n        /* \"#utility.yul\":9618:9636   */\n      add\n        /* \"#utility.yul\":9609:9615   */\n      dup6\n        /* \"#utility.yul\":9565:9637   */\n      tag_177\n      jump\t// in\n    tag_247:\n        /* \"#utility.yul\":9647:9745   */\n      tag_248\n        /* \"#utility.yul\":9741:9743   */\n      0x40\n        /* \"#utility.yul\":9730:9739   */\n      dup4\n        /* \"#utility.yul\":9726:9744   */\n      add\n        /* \"#utility.yul\":9717:9723   */\n      dup5\n        /* \"#utility.yul\":9647:9745   */\n      tag_194\n      jump\t// in\n    tag_248:\n        /* \"#utility.yul\":9258:9752   */\n      swap5\n      swap4\n      pop\n      pop\n      pop\n      pop\n      jump\t// out\n        /* \"#utility.yul\":9758:10142   */\n    tag_65:\n        /* \"#utility.yul\":9905:9909   */\n      0x00\n        /* \"#utility.yul\":9943:9945   */\n      0x40\n        /* \"#utility.yul\":9932:9941   */\n      dup3\n        /* \"#utility.yul\":9928:9946   */\n      add\n        /* \"#utility.yul\":9920:9946   */\n      swap1\n      pop\n        /* \"#utility.yul\":9956:10027   */\n      tag_250\n        /* \"#utility.yul\":10024:10025   */\n      0x00\n        /* \"#utility.yul\":10013:10022   */\n      dup4\n        /* \"#utility.yul\":10009:10026   */\n      add\n        /* \"#utility.yul\":10000:10006   */\n      dup6\n        /* \"#utility.yul\":9956:10027   */\n      tag_177\n      jump\t// in\n    tag_250:\n        /* \"#utility.yul\":10037:10135   */\n      tag_251\n        /* \"#utility.yul\":10131:10133   */\n      0x20\n        /* \"#utility.yul\":10120:10129   */\n      dup4\n        /* \"#utility.yul\":10116:10134   */\n      add\n        /* \"#utility.yul\":10107:10113   */\n      dup5\n        /* \"#utility.yul\":10037:10135   */\n      tag_194\n      jump\t// in\n    tag_251:\n        /* \"#utility.yul\":9758:10142   */\n      swap4\n      swap3\n      pop\n      pop\n      pop\n      jump\t// out\n        /* \"#utility.yul\":10148:10480   */\n    tag_14:\n        /* \"#utility.yul\":10269:10273   */\n      0x00\n        /* \"#utility.yul\":10307:10309   */\n      0x40\n        /* \"#utility.yul\":10296:10305   */\n      dup3\n        /* \"#utility.yul\":10292:10310   */\n      add\n        /* \"#utility.yul\":10284:10310   */\n      swap1\n      pop\n        /* \"#utility.yul\":10320:10391   */\n      tag_253\n        /* \"#utility.yul\":10388:10389   */\n      0x00\n        /* \"#utility.yul\":10377:10386   */\n      dup4\n        /* \"#utility.yul\":10373:10390   */\n      add\n        /* \"#utility.yul\":10364:10370   */\n      dup6\n        /* \"#utility.yul\":10320:10391   */\n      tag_177\n      jump\t// in\n    tag_253:\n        /* \"#utility.yul\":10401:10473   */\n      tag_254\n        /* \"#utility.yul\":10469:10471   */\n      0x20\n        /* \"#utility.yul\":10458:10467   */\n      dup4\n        /* \"#utility.yul\":10454:10472   */\n      add\n        /* \"#utility.yul\":10445:10451   */\n      dup5\n        /* \"#utility.yul\":10401:10473   */\n      tag_240\n      jump\t// in\n    tag_254:\n        /* \"#utility.yul\":10148:10480   */\n      swap4\n      swap3\n      pop\n      pop\n      pop\n      jump\t// out\n        /* \"#utility.yul\":10486:10943   */\n    tag_23:\n        /* \"#utility.yul\":10671:10675   */\n      0x00\n        /* \"#utility.yul\":10709:10711   */\n      0x20\n        /* \"#utility.yul\":10698:10707   */\n      dup3\n        /* \"#utility.yul\":10694:10712   */\n      add\n        /* \"#utility.yul\":10686:10712   */\n      swap1\n      pop\n        /* \"#utility.yul\":10758:10767   */\n      dup2\n        /* \"#utility.yul\":10752:10756   */\n      dup2\n        /* \"#utility.yul\":10748:10768   */\n      sub\n        /* \"#utility.yul\":10744:10745   */\n      0x00\n        /* \"#utility.yul\":10733:10742   */\n      dup4\n        /* \"#utility.yul\":10729:10746   */\n      add\n        /* \"#utility.yul\":10722:10769   */\n      mstore\n        /* \"#utility.yul\":10786:10936   */\n      tag_256\n        /* \"#utility.yul\":10931:10935   */\n      dup2\n        /* \"#utility.yul\":10922:10928   */\n      dup5\n        /* \"#utility.yul\":10786:10936   */\n      tag_180\n      jump\t// in\n    tag_256:\n        /* \"#utility.yul\":10778:10936   */\n      swap1\n      pop\n        /* \"#utility.yul\":10486:10943   */\n      swap3\n      swap2\n      pop\n      pop\n      jump\t// out\n        /* \"#utility.yul\":10949:11368   */\n    tag_45:\n        /* \"#utility.yul\":11115:11119   */\n      0x00\n        /* \"#utility.yul\":11153:11155   */\n      0x20\n        /* \"#utility.yul\":11142:11151   */\n      dup3\n        /* \"#utility.yul\":11138:11156   */\n      add\n        /* \"#utility.yul\":11130:11156   */\n      swap1\n      pop\n        /* \"#utility.yul\":11202:11211   */\n      dup2\n        /* \"#utility.yul\":11196:11200   */\n      dup2\n        /* \"#utility.yul\":11192:11212   */\n      sub\n        /* \"#utility.yul\":11188:11189   */\n      0x00\n        /* \"#utility.yul\":11177:11186   */\n      dup4\n        /* \"#utility.yul\":11173:11190   */\n      add\n        /* \"#utility.yul\":11166:11213   */\n      mstore\n        /* \"#utility.yul\":11230:11361   */\n      tag_258\n        /* \"#utility.yul\":11356:11360   */\n      dup2\n        /* \"#utility.yul\":11230:11361   */\n      tag_215\n      jump\t// in\n    tag_258:\n        /* \"#utility.yul\":11222:11361   */\n      swap1\n      pop\n        /* \"#utility.yul\":10949:11368   */\n      swap2\n      swap1\n      pop\n      jump\t// out\n        /* \"#utility.yul\":11374:11793   */\n    tag_63:\n        /* \"#utility.yul\":11540:11544   */\n      0x00\n        /* \"#utility.yul\":11578:11580   */\n      0x20\n        /* \"#utility.yul\":11567:11576   */\n      dup3\n        /* \"#utility.yul\":11563:11581   */\n      add\n        /* \"#utility.yul\":11555:11581   */\n      swap1\n      pop\n        /* \"#utility.yul\":11627:11636   */\n      dup2\n        /* \"#utility.yul\":11621:11625   */\n      dup2\n        /* \"#utility.yul\":11617:11637   */\n      sub\n        /* \"#utility.yul\":11613:11614   */\n      0x00\n        /* \"#utility.yul\":11602:11611   */\n      dup4\n        /* \"#utility.yul\":11598:11615   */\n      add\n        /* \"#utility.yul\":11591:11638   */\n      mstore\n        /* \"#utility.yul\":11655:11786   */\n      tag_260\n        /* \"#utility.yul\":11781:11785   */\n      dup2\n        /* \"#utility.yul\":11655:11786   */\n      tag_220\n      jump\t// in\n    tag_260:\n        /* \"#utility.yul\":11647:11786   */\n      swap1\n      pop\n        /* \"#utility.yul\":11374:11793   */\n      swap2\n      swap1\n      pop\n      jump\t// out\n        /* \"#utility.yul\":11799:12218   */\n    tag_91:\n        /* \"#utility.yul\":11965:11969   */\n      0x00\n        /* \"#utility.yul\":12003:12005   */\n      0x20\n        /* \"#utility.yul\":11992:12001   */\n      dup3\n        /* \"#utility.yul\":11988:12006   */\n      add\n        /* \"#utility.yul\":11980:12006   */\n      swap1\n      pop\n        /* \"#utility.yul\":12052:12061   */\n      dup2\n        /* \"#utility.yul\":12046:12050   */\n      dup2\n        /* \"#utility.yul\":12042:12062   */\n      sub\n        /* \"#utility.yul\":12038:12039   */\n      0x00\n        /* \"#utility.yul\":12027:12036   */\n      dup4\n        /* \"#utility.yul\":12023:12040   */\n      add\n        /* \"#utility.yul\":12016:12063   */\n      mstore\n        /* \"#utility.yul\":12080:12211   */\n      tag_262\n        /* \"#utility.yul\":12206:12210   */\n      dup2\n        /* \"#utility.yul\":12080:12211   */\n      tag_225\n      jump\t// in\n    tag_262:\n        /* \"#utility.yul\":12072:12211   */\n      swap1\n      pop\n        /* \"#utility.yul\":11799:12218   */\n      swap2\n      swap1\n      pop\n      jump\t// out\n        /* \"#utility.yul\":12224:12446   */\n    tag_31:\n        /* \"#utility.yul\":12317:12321   */\n      0x00\n        /* \"#utility.yul\":12355:12357   */\n      0x20\n        /* \"#utility.yul\":12344:12353   */\n      dup3\n        /* \"#utility.yul\":12340:12358   */\n      add\n        /* \"#utility.yul\":12332:12358   */\n      swap1\n      pop\n        /* \"#utility.yul\":12368:12439   */\n      tag_264\n        /* \"#utility.yul\":12436:12437   */\n      0x00\n        /* \"#utility.yul\":12425:12434   */\n      dup4\n        /* \"#utility.yul\":12421:12438   */\n      add\n        /* \"#utility.yul\":12412:12418   */\n      dup5\n        /* \"#utility.yul\":12368:12439   */\n      tag_240\n      jump\t// in\n    tag_264:\n        /* \"#utility.yul\":12224:12446   */\n      swap3\n      swap2\n      pop\n      pop\n      jump\t// out\n        /* \"#utility.yul\":12452:13187   */\n    tag_53:\n        /* \"#utility.yul\":12669:12673   */\n      0x00\n        /* \"#utility.yul\":12707:12710   */\n      0x80\n        /* \"#utility.yul\":12696:12705   */\n      dup3\n        /* \"#utility.yul\":12692:12711   */\n      add\n        /* \"#utility.yul\":12684:12711   */\n      swap1\n      pop\n        /* \"#utility.yul\":12721:12792   */\n      tag_266\n        /* \"#utility.yul\":12789:12790   */\n      0x00\n        /* \"#utility.yul\":12778:12787   */\n      dup4\n        /* \"#utility.yul\":12774:12791   */\n      add\n        /* \"#utility.yul\":12765:12771   */\n      dup8\n        /* \"#utility.yul\":12721:12792   */\n      tag_240\n      jump\t// in\n    tag_266:\n        /* \"#utility.yul\":12839:12848   */\n      dup2\n        /* \"#utility.yul\":12833:12837   */\n      dup2\n        /* \"#utility.yul\":12829:12849   */\n      sub\n        /* \"#utility.yul\":12824:12826   */\n      0x20\n        /* \"#utility.yul\":12813:12822   */\n      dup4\n        /* \"#utility.yul\":12809:12827   */\n      add\n        /* \"#utility.yul\":12802:12850   */\n      mstore\n        /* \"#utility.yul\":12867:12945   */\n      tag_267\n        /* \"#utility.yul\":12940:12944   */\n      dup2\n        /* \"#utility.yul\":12931:12937   */\n      dup7\n        /* \"#utility.yul\":12867:12945   */\n      tag_208\n      jump\t// in\n    tag_267:\n        /* \"#utility.yul\":12859:12945   */\n      swap1\n      pop\n        /* \"#utility.yul\":12992:13001   */\n      dup2\n        /* \"#utility.yul\":12986:12990   */\n      dup2\n        /* \"#utility.yul\":12982:13002   */\n      sub\n        /* \"#utility.yul\":12977:12979   */\n      0x40\n        /* \"#utility.yul\":12966:12975   */\n      dup4\n        /* \"#utility.yul\":12962:12980   */\n      add\n        /* \"#utility.yul\":12955:13003   */\n      mstore\n        /* \"#utility.yul\":13020:13098   */\n      tag_268\n        /* \"#utility.yul\":13093:13097   */\n      dup2\n        /* \"#utility.yul\":13084:13090   */\n      dup6\n        /* \"#utility.yul\":13020:13098   */\n      tag_208\n      jump\t// in\n    tag_268:\n        /* \"#utility.yul\":13012:13098   */\n      swap1\n      pop\n        /* \"#utility.yul\":13108:13180   */\n      tag_269\n        /* \"#utility.yul\":13176:13178   */\n      0x60\n        /* \"#utility.yul\":13165:13174   */\n      dup4\n        /* \"#utility.yul\":13161:13179   */\n      add\n        /* \"#utility.yul\":13152:13158   */\n      dup5\n        /* \"#utility.yul\":13108:13180   */\n      tag_240\n      jump\t// in\n    tag_269:\n        /* \"#utility.yul\":12452:13187   */\n      swap6\n      swap5\n      pop\n      pop\n      pop\n      pop\n      pop\n      jump\t// out\n        /* \"#utility.yul\":13193:13322   */\n    tag_112:\n        /* \"#utility.yul\":13227:13233   */\n      0x00\n        /* \"#utility.yul\":13254:13274   */\n      tag_271\n      tag_272\n      jump\t// in\n    tag_271:\n        /* \"#utility.yul\":13244:13274   */\n      swap1\n      pop\n        /* \"#utility.yul\":13283:13316   */\n      tag_273\n        /* \"#utility.yul\":13311:13315   */\n      dup3\n        /* \"#utility.yul\":13303:13309   */\n      dup3\n        /* \"#utility.yul\":13283:13316   */\n      tag_274\n      jump\t// in\n    tag_273:\n        /* \"#utility.yul\":13193:13322   */\n      swap2\n      swap1\n      pop\n      jump\t// out\n        /* \"#utility.yul\":13328:13403   */\n    tag_272:\n        /* \"#utility.yul\":13361:13367   */\n      0x00\n        /* \"#utility.yul\":13394:13396   */\n      0x40\n        /* \"#utility.yul\":13388:13397   */\n      mload\n        /* \"#utility.yul\":13378:13397   */\n      swap1\n      pop\n        /* \"#utility.yul\":13328:13403   */\n      swap1\n      jump\t// out\n        /* \"#utility.yul\":13409:13717   */\n    tag_111:\n        /* \"#utility.yul\":13471:13475   */\n      0x00\n        /* \"#utility.yul\":13561:13579   */\n      0xffffffffffffffff\n        /* \"#utility.yul\":13553:13559   */\n      dup3\n        /* \"#utility.yul\":13550:13580   */\n      gt\n        /* \"#utility.yul\":13547:13603   */\n      iszero\n      tag_277\n      jumpi\n        /* \"#utility.yul\":13583:13601   */\n      tag_278\n      tag_279\n      jump\t// in\n    tag_278:\n        /* \"#utility.yul\":13547:13603   */\n    tag_277:\n        /* \"#utility.yul\":13621:13650   */\n      tag_280\n        /* \"#utility.yul\":13643:13649   */\n      dup3\n        /* \"#utility.yul\":13621:13650   */\n      tag_207\n      jump\t// in\n    tag_280:\n        /* \"#utility.yul\":13613:13650   */\n      swap1\n      pop\n        /* \"#utility.yul\":13705:13709   */\n      0x20\n        /* \"#utility.yul\":13699:13703   */\n      dup2\n        /* \"#utility.yul\":13695:13710   */\n      add\n        /* \"#utility.yul\":13687:13710   */\n      swap1\n      pop\n        /* \"#utility.yul\":13409:13717   */\n      swap2\n      swap1\n      pop\n      jump\t// out\n        /* \"#utility.yul\":13723:13876   */\n    tag_187:\n        /* \"#utility.yul\":13811:13815   */\n      0x00\n        /* \"#utility.yul\":13834:13837   */\n      dup2\n        /* \"#utility.yul\":13826:13837   */\n      swap1\n      pop\n        /* \"#utility.yul\":13864:13868   */\n      0x20\n        /* \"#utility.yul\":13859:13862   */\n      dup3\n        /* \"#utility.yul\":13855:13869   */\n      add\n        /* \"#utility.yul\":13847:13869   */\n      swap1\n      pop\n        /* \"#utility.yul\":13723:13876   */\n      swap2\n      swap1\n      pop\n      jump\t// out\n        /* \"#utility.yul\":13882:14017   */\n    tag_183:\n        /* \"#utility.yul\":13970:13976   */\n      0x00\n        /* \"#utility.yul\":14004:14009   */\n      dup2\n        /* \"#utility.yul\":13998:14010   */\n      mload\n        /* \"#utility.yul\":13988:14010   */\n      swap1\n      pop\n        /* \"#utility.yul\":13882:14017   */\n      swap2\n      swap1\n      pop\n      jump\t// out\n        /* \"#utility.yul\":14023:14122   */\n    tag_201:\n        /* \"#utility.yul\":14075:14081   */\n      0x00\n        /* \"#utility.yul\":14109:14114   */\n      dup2\n        /* \"#utility.yul\":14103:14115   */\n      mload\n        /* \"#utility.yul\":14093:14115   */\n      swap1\n      pop\n        /* \"#utility.yul\":14023:14122   */\n      swap2\n      swap1\n      pop\n      jump\t// out\n        /* \"#utility.yul\":14128:14262   */\n    tag_193:\n        /* \"#utility.yul\":14219:14223   */\n      0x00\n        /* \"#utility.yul\":14251:14255   */\n      0x20\n        /* \"#utility.yul\":14246:14249   */\n      dup3\n        /* \"#utility.yul\":14242:14256   */\n      add\n        /* \"#utility.yul\":14234:14256   */\n      swap1\n      pop\n        /* \"#utility.yul\":14128:14262   */\n      swap2\n      swap1\n      pop\n      jump\t// out\n        /* \"#utility.yul\":14268:14473   */\n    tag_185:\n        /* \"#utility.yul\":14388:14399   */\n      0x00\n        /* \"#utility.yul\":14422:14428   */\n      dup3\n        /* \"#utility.yul\":14417:14420   */\n      dup3\n        /* \"#utility.yul\":14410:14429   */\n      mstore\n        /* \"#utility.yul\":14462:14466   */\n      0x20\n        /* \"#utility.yul\":14457:14460   */\n      dup3\n        /* \"#utility.yul\":14453:14467   */\n      add\n        /* \"#utility.yul\":14438:14467   */\n      swap1\n      pop\n        /* \"#utility.yul\":14268:14473   */\n      swap3\n      swap2\n      pop\n      pop\n      jump\t// out\n        /* \"#utility.yul\":14479:14638   */\n    tag_203:\n        /* \"#utility.yul\":14553:14564   */\n      0x00\n        /* \"#utility.yul\":14587:14593   */\n      dup3\n        /* \"#utility.yul\":14582:14585   */\n      dup3\n        /* \"#utility.yul\":14575:14594   */\n      mstore\n        /* \"#utility.yul\":14627:14631   */\n      0x20\n        /* \"#utility.yul\":14622:14625   */\n      dup3\n        /* \"#utility.yul\":14618:14632   */\n      add\n        /* \"#utility.yul\":14603:14632   */\n      swap1\n      pop\n        /* \"#utility.yul\":14479:14638   */\n      swap3\n      swap2\n      pop\n      pop\n      jump\t// out\n        /* \"#utility.yul\":14644:14813   */\n    tag_212:\n        /* \"#utility.yul\":14728:14739   */\n      0x00\n        /* \"#utility.yul\":14762:14768   */\n      dup3\n        /* \"#utility.yul\":14757:14760   */\n      dup3\n        /* \"#utility.yul\":14750:14769   */\n      mstore\n        /* \"#utility.yul\":14802:14806   */\n      0x20\n        /* \"#utility.yul\":14797:14800   */\n      dup3\n        /* \"#utility.yul\":14793:14807   */\n      add\n        /* \"#utility.yul\":14778:14807   */\n      swap1\n      pop\n        /* \"#utility.yul\":14644:14813   */\n      swap3\n      swap2\n      pop\n      pop\n      jump\t// out\n        /* \"#utility.yul\":14819:15124   */\n    tag_12:\n        /* \"#utility.yul\":14859:14862   */\n      0x00\n        /* \"#utility.yul\":14878:14898   */\n      tag_289\n        /* \"#utility.yul\":14896:14897   */\n      dup3\n        /* \"#utility.yul\":14878:14898   */\n      tag_239\n      jump\t// in\n    tag_289:\n        /* \"#utility.yul\":14873:14898   */\n      swap2\n      pop\n        /* \"#utility.yul\":14912:14932   */\n      tag_290\n        /* \"#utility.yul\":14930:14931   */\n      dup4\n        /* \"#utility.yul\":14912:14932   */\n      tag_239\n      jump\t// in\n    tag_290:\n        /* \"#utility.yul\":14907:14932   */\n      swap3\n      pop\n        /* \"#utility.yul\":15066:15067   */\n      dup3\n        /* \"#utility.yul\":14998:15064   */\n      0xffffffffffffffffffffffffffffffffffffffffffffffffffffffffffffffff\n        /* \"#utility.yul\":14994:15068   */\n      sub\n        /* \"#utility.yul\":14991:14992   */\n      dup3\n        /* \"#utility.yul\":14988:15069   */\n      gt\n        /* \"#utility.yul\":14985:15092   */\n      iszero\n      tag_291\n      jumpi\n        /* \"#utility.yul\":15072:15090   */\n      tag_292\n      tag_293\n      jump\t// in\n    tag_292:\n        /* \"#utility.yul\":14985:15092   */\n    tag_291:\n        /* \"#utility.yul\":15116:15117   */\n      dup3\n        /* \"#utility.yul\":15113:15114   */\n      dup3\n        /* \"#utility.yul\":15109:15118   */\n      add\n        /* \"#utility.yul\":15102:15118   */\n      swap1\n      pop\n        /* \"#utility.yul\":14819:15124   */\n      swap3\n      swap2\n      pop\n      pop\n      jump\t// out\n        /* \"#utility.yul\":15130:15226   */\n    tag_176:\n        /* \"#utility.yul\":15167:15174   */\n      0x00\n        /* \"#utility.yul\":15196:15220   */\n      tag_295\n        /* \"#utility.yul\":15214:15219   */\n      dup3\n        /* \"#utility.yul\":15196:15220   */\n      tag_296\n      jump\t// in\n    tag_295:\n        /* \"#utility.yul\":15185:15220   */\n      swap1\n      pop\n        /* \"#utility.yul\":15130:15226   */\n      swap2\n      swap1\n      pop\n      jump\t// out\n        /* \"#utility.yul\":15232:15322   */\n    tag_297:\n        /* \"#utility.yul\":15266:15273   */\n      0x00\n        /* \"#utility.yul\":15309:15314   */\n      dup2\n        /* \"#utility.yul\":15302:15315   */\n      iszero\n        /* \"#utility.yul\":15295:15316   */\n      iszero\n        /* \"#utility.yul\":15284:15316   */\n      swap1\n      pop\n        /* \"#utility.yul\":15232:15322   */\n      swap2\n      swap1\n      pop\n      jump\t// out\n        /* \"#utility.yul\":15328:15437   */\n    tag_299:\n        /* \"#utility.yul\":15378:15385   */\n      0x00\n        /* \"#utility.yul\":15407:15431   */\n      tag_301\n        /* \"#utility.yul\":15425:15430   */\n      dup3\n        /* \"#utility.yul\":15407:15431   */\n      tag_176\n      jump\t// in\n    tag_301:\n        /* \"#utility.yul\":15396:15431   */\n      swap1\n      pop\n        /* \"#utility.yul\":15328:15437   */\n      swap2\n      swap1\n      pop\n      jump\t// out\n        /* \"#utility.yul\":15443:15569   */\n    tag_296:\n        /* \"#utility.yul\":15480:15487   */\n      0x00\n        /* \"#utility.yul\":15520:15562   */\n      0xffffffffffffffffffffffffffffffffffffffff\n        /* \"#utility.yul\":15513:15518   */\n      dup3\n        /* \"#utility.yul\":15509:15563   */\n      and\n        /* \"#utility.yul\":15498:15563   */\n      swap1\n      pop\n        /* \"#utility.yul\":15443:15569   */\n      swap2\n      swap1\n      pop\n      jump\t// out\n        /* \"#utility.yul\":15575:15652   */\n    tag_239:\n        /* \"#utility.yul\":15612:15619   */\n      0x00\n        /* \"#utility.yul\":15641:15646   */\n      dup2\n        /* \"#utility.yul\":15630:15646   */\n      swap1\n      pop\n        /* \"#utility.yul\":15575:15652   */\n      swap2\n      swap1\n      pop\n      jump\t// out\n        /* \"#utility.yul\":15658:15797   */\n    tag_197:\n        /* \"#utility.yul\":15734:15743   */\n      0x00\n        /* \"#utility.yul\":15767:15791   */\n      tag_305\n        /* \"#utility.yul\":15785:15790   */\n      dup3\n        /* \"#utility.yul\":15767:15791   */\n      tag_239\n      jump\t// in\n    tag_305:\n        /* \"#utility.yul\":15754:15791   */\n      swap1\n      pop\n        /* \"#utility.yul\":15658:15797   */\n      swap2\n      swap1\n      pop\n      jump\t// out\n        /* \"#utility.yul\":15803:15957   */\n    tag_117:\n        /* \"#utility.yul\":15887:15893   */\n      dup3\n        /* \"#utility.yul\":15882:15885   */\n      dup2\n        /* \"#utility.yul\":15877:15880   */\n      dup4\n        /* \"#utility.yul\":15864:15894   */\n      calldatacopy\n        /* \"#utility.yul\":15949:15950   */\n      0x00\n        /* \"#utility.yul\":15940:15946   */\n      dup4\n        /* \"#utility.yul\":15935:15938   */\n      dup4\n        /* \"#utility.yul\":15931:15947   */\n      add\n        /* \"#utility.yul\":15924:15951   */\n      mstore\n        /* \"#utility.yul\":15803:15957   */\n      pop\n      pop\n      pop\n      jump\t// out\n        /* \"#utility.yul\":15963:16270   */\n    tag_205:\n        /* \"#utility.yul\":16031:16032   */\n      0x00\n        /* \"#utility.yul\":16041:16154   */\n    tag_308:\n        /* \"#utility.yul\":16055:16061   */\n      dup4\n        /* \"#utility.yul\":16052:16053   */\n      dup2\n        /* \"#utility.yul\":16049:16062   */\n      lt\n        /* \"#utility.yul\":16041:16154   */\n      iszero\n      tag_310\n      jumpi\n        /* \"#utility.yul\":16140:16141   */\n      dup1\n        /* \"#utility.yul\":16135:16138   */\n      dup3\n        /* \"#utility.yul\":16131:16142   */\n      add\n        /* \"#utility.yul\":16125:16143   */\n      mload\n        /* \"#utility.yul\":16121:16122   */\n      dup2\n        /* \"#utility.yul\":16116:16119   */\n      dup5\n        /* \"#utility.yul\":16112:16123   */\n      add\n        /* \"#utility.yul\":16105:16144   */\n      mstore\n        /* \"#utility.yul\":16077:16079   */\n      0x20\n        /* \"#utility.yul\":16074:16075   */\n      dup2\n        /* \"#utility.yul\":16070:16080   */\n      add\n        /* \"#utility.yul\":16065:16080   */\n      swap1\n      pop\n        /* \"#utility.yul\":16041:16154   */\n      jump(tag_308)\n    tag_310:\n        /* \"#utility.yul\":16172:16178   */\n      dup4\n        /* \"#utility.yul\":16169:16170   */\n      dup2\n        /* \"#utility.yul\":16166:16179   */\n      gt\n        /* \"#utility.yul\":16163:16264   */\n      iszero\n      tag_311\n      jumpi\n        /* \"#utility.yul\":16252:16253   */\n      0x00\n        /* \"#utility.yul\":16243:16249   */\n      dup5\n        /* \"#utility.yul\":16238:16241   */\n      dup5\n        /* \"#utility.yul\":16234:16250   */\n      add\n        /* \"#utility.yul\":16227:16254   */\n      mstore\n        /* \"#utility.yul\":16163:16264   */\n    tag_311:\n        /* \"#utility.yul\":16012:16270   */\n      pop\n        /* \"#utility.yul\":15963:16270   */\n      pop\n      pop\n      pop\n      jump\t// out\n        /* \"#utility.yul\":16276:16596   */\n    tag_78:\n        /* \"#utility.yul\":16320:16326   */\n      0x00\n        /* \"#utility.yul\":16357:16358   */\n      0x02\n        /* \"#utility.yul\":16351:16355   */\n      dup3\n        /* \"#utility.yul\":16347:16359   */\n      div\n        /* \"#utility.yul\":16337:16359   */\n      swap1\n      pop\n        /* \"#utility.yul\":16404:16405   */\n      0x01\n        /* \"#utility.yul\":16398:16402   */\n      dup3\n        /* \"#utility.yul\":16394:16406   */\n      and\n        /* \"#utility.yul\":16425:16443   */\n      dup1\n        /* \"#utility.yul\":16415:16496   */\n      tag_313\n      jumpi\n        /* \"#utility.yul\":16481:16485   */\n      0x7f\n        /* \"#utility.yul\":16473:16479   */\n      dup3\n        /* \"#utility.yul\":16469:16486   */\n      and\n        /* \"#utility.yul\":16459:16486   */\n      swap2\n      pop\n        /* \"#utility.yul\":16415:16496   */\n    tag_313:\n        /* \"#utility.yul\":16543:16545   */\n      0x20\n        /* \"#utility.yul\":16535:16541   */\n      dup3\n        /* \"#utility.yul\":16532:16546   */\n      lt\n        /* \"#utility.yul\":16512:16530   */\n      dup2\n        /* \"#utility.yul\":16509:16547   */\n      eq\n        /* \"#utility.yul\":16506:16590   */\n      iszero\n      tag_314\n      jumpi\n        /* \"#utility.yul\":16562:16580   */\n      tag_315\n      tag_316\n      jump\t// in\n    tag_315:\n        /* \"#utility.yul\":16506:16590   */\n    tag_314:\n        /* \"#utility.yul\":16327:16596   */\n      pop\n        /* \"#utility.yul\":16276:16596   */\n      swap2\n      swap1\n      pop\n      jump\t// out\n        /* \"#utility.yul\":16602:16883   */\n    tag_274:\n        /* \"#utility.yul\":16685:16712   */\n      tag_318\n        /* \"#utility.yul\":16707:16711   */\n      dup3\n        /* \"#utility.yul\":16685:16712   */\n      tag_207\n      jump\t// in\n    tag_318:\n        /* \"#utility.yul\":16677:16683   */\n      dup2\n        /* \"#utility.yul\":16673:16713   */\n      add\n        /* \"#utility.yul\":16815:16821   */\n      dup2\n        /* \"#utility.yul\":16803:16813   */\n      dup2\n        /* \"#utility.yul\":16800:16822   */\n      lt\n        /* \"#utility.yul\":16779:16797   */\n      0xffffffffffffffff\n        /* \"#utility.yul\":16767:16777   */\n      dup3\n        /* \"#utility.yul\":16764:16798   */\n      gt\n        /* \"#utility.yul\":16761:16823   */\n      or\n        /* \"#utility.yul\":16758:16846   */\n      iszero\n      tag_319\n      jumpi\n        /* \"#utility.yul\":16826:16844   */\n      tag_320\n      tag_279\n      jump\t// in\n    tag_320:\n        /* \"#utility.yul\":16758:16846   */\n    tag_319:\n        /* \"#utility.yul\":16866:16876   */\n      dup1\n        /* \"#utility.yul\":16862:16864   */\n      0x40\n        /* \"#utility.yul\":16855:16877   */\n      mstore\n        /* \"#utility.yul\":16645:16883   */\n      pop\n        /* \"#utility.yul\":16602:16883   */\n      pop\n      pop\n      jump\t// out\n        /* \"#utility.yul\":16889:17069   */\n    tag_293:\n        /* \"#utility.yul\":16937:17014   */\n      0x4e487b7100000000000000000000000000000000000000000000000000000000\n        /* \"#utility.yul\":16934:16935   */\n      0x00\n        /* \"#utility.yul\":16927:17015   */\n      mstore\n        /* \"#utility.yul\":17034:17038   */\n      0x11\n        /* \"#utility.yul\":17031:17032   */\n      0x04\n        /* \"#utility.yul\":17024:17039   */\n      mstore\n        /* \"#utility.yul\":17058:17062   */\n      0x24\n        /* \"#utility.yul\":17055:17056   */\n      0x00\n        /* \"#utility.yul\":17048:17063   */\n      revert\n        /* \"#utility.yul\":17075:17255   */\n    tag_316:\n        /* \"#utility.yul\":17123:17200   */\n      0x4e487b7100000000000000000000000000000000000000000000000000000000\n        /* \"#utility.yul\":17120:17121   */\n      0x00\n        /* \"#utility.yul\":17113:17201   */\n      mstore\n        /* \"#utility.yul\":17220:17224   */\n      0x22\n        /* \"#utility.yul\":17217:17218   */\n      0x04\n        /* \"#utility.yul\":17210:17225   */\n      mstore\n        /* \"#utility.yul\":17244:17248   */\n      0x24\n        /* \"#utility.yul\":17241:17242   */\n      0x00\n        /* \"#utility.yul\":17234:17249   */\n      revert\n        /* \"#utility.yul\":17261:17441   */\n    tag_279:\n        /* \"#utility.yul\":17309:17386   */\n      0x4e487b7100000000000000000000000000000000000000000000000000000000\n        /* \"#utility.yul\":17306:17307   */\n      0x00\n        /* \"#utility.yul\":17299:17387   */\n      mstore\n        /* \"#utility.yul\":17406:17410   */\n      0x41\n        /* \"#utility.yul\":17403:17404   */\n      0x04\n        /* \"#utility.yul\":17396:17411   */\n      mstore\n        /* \"#utility.yul\":17430:17434   */\n      0x24\n        /* \"#utility.yul\":17427:17428   */\n      0x00\n        /* \"#utility.yul\":17420:17435   */\n      revert\n        /* \"#utility.yul\":17447:17564   */\n    tag_134:\n        /* \"#utility.yul\":17556:17557   */\n      0x00\n        /* \"#utility.yul\":17553:17554   */\n      dup1\n        /* \"#utility.yul\":17546:17558   */\n      revert\n        /* \"#utility.yul\":17570:17687   */\n    tag_115:\n        /* \"#utility.yul\":17679:17680   */\n      0x00\n        /* \"#utility.yul\":17676:17677   */\n      dup1\n        /* \"#utility.yul\":17669:17681   */\n      revert\n        /* \"#utility.yul\":17693:17810   */\n    tag_163:\n        /* \"#utility.yul\":17802:17803   */\n      0x00\n        /* \"#utility.yul\":17799:17800   */\n      dup1\n        /* \"#utility.yul\":17792:17804   */\n      revert\n        /* \"#utility.yul\":17816:17933   */\n    tag_146:\n        /* \"#utility.yul\":17925:17926   */\n      0x00\n        /* \"#utility.yul\":17922:17923   */\n      dup1\n        /* \"#utility.yul\":17915:17927   */\n      revert\n        /* \"#utility.yul\":17939:18041   */\n    tag_207:\n        /* \"#utility.yul\":17980:17986   */\n      0x00\n        /* \"#utility.yul\":18031:18033   */\n      0x1f\n        /* \"#utility.yul\":18027:18034   */\n      not\n        /* \"#utility.yul\":18022:18024   */\n      0x1f\n        /* \"#utility.yul\":18015:18020   */\n      dup4\n        /* \"#utility.yul\":18011:18025   */\n      add\n        /* \"#utility.yul\":18007:18035   */\n      and\n        /* \"#utility.yul\":17997:18035   */\n      swap1\n      pop\n        /* \"#utility.yul\":17939:18041   */\n      swap2\n      swap1\n      pop\n      jump\t// out\n        /* \"#utility.yul\":18047:18227   */\n    tag_219:\n        /* \"#utility.yul\":18187:18219   */\n      0x706c65617365206465706f736974206174206c65617374203130207765690000\n        /* \"#utility.yul\":18183:18184   */\n      0x00\n        /* \"#utility.yul\":18175:18181   */\n      dup3\n        /* \"#utility.yul\":18171:18185   */\n      add\n        /* \"#utility.yul\":18164:18220   */\n      mstore\n        /* \"#utility.yul\":18047:18227   */\n      pop\n      jump\t// out\n        /* \"#utility.yul\":18233:18397   */\n    tag_224:\n        /* \"#utility.yul\":18373:18389   */\n      0x62616c616e6365206973206c6f77000000000000000000000000000000000000\n        /* \"#utility.yul\":18369:18370   */\n      0x00\n        /* \"#utility.yul\":18361:18367   */\n      dup3\n        /* \"#utility.yul\":18357:18371   */\n      add\n        /* \"#utility.yul\":18350:18390   */\n      mstore\n        /* \"#utility.yul\":18233:18397   */\n      pop\n      jump\t// out\n        /* \"#utility.yul\":18403:18562   */\n    tag_229:\n        /* \"#utility.yul\":18543:18554   */\n      0x4e6f74206f776e65720000000000000000000000000000000000000000000000\n        /* \"#utility.yul\":18539:18540   */\n      0x00\n        /* \"#utility.yul\":18531:18537   */\n      dup3\n        /* \"#utility.yul\":18527:18541   */\n      add\n        /* \"#utility.yul\":18520:18555   */\n      mstore\n        /* \"#utility.yul\":18403:18562   */\n      pop\n      jump\t// out\n        /* \"#utility.yul\":18568:18690   */\n    tag_121:\n        /* \"#utility.yul\":18641:18665   */\n      tag_333\n        /* \"#utility.yul\":18659:18664   */\n      dup2\n        /* \"#utility.yul\":18641:18665   */\n      tag_176\n      jump\t// in\n    tag_333:\n        /* \"#utility.yul\":18634:18639   */\n      dup2\n        /* \"#utility.yul\":18631:18666   */\n      eq\n        /* \"#utility.yul\":18621:18684   */\n      tag_334\n      jumpi\n        /* \"#utility.yul\":18680:18681   */\n      0x00\n        /* \"#utility.yul\":18677:18678   */\n      dup1\n        /* \"#utility.yul\":18670:18682   */\n      revert\n        /* \"#utility.yul\":18621:18684   */\n    tag_334:\n        /* \"#utility.yul\":18568:18690   */\n      pop\n      jump\t// out\n        /* \"#utility.yul\":18696:18812   */\n    tag_125:\n        /* \"#utility.yul\":18766:18787   */\n      tag_336\n        /* \"#utility.yul\":18781:18786   */\n      dup2\n        /* \"#utility.yul\":18766:18787   */\n      tag_297\n      jump\t// in\n    tag_336:\n        /* \"#utility.yul\":18759:18764   */\n      dup2\n        /* \"#utility.yul\":18756:18788   */\n      eq\n        /* \"#utility.yul\":18746:18806   */\n      tag_337\n      jumpi\n        /* \"#utility.yul\":18802:18803   */\n      0x00\n        /* \"#utility.yul\":18799:18800   */\n      dup1\n        /* \"#utility.yul\":18792:18804   */\n      revert\n        /* \"#utility.yul\":18746:18806   */\n    tag_337:\n        /* \"#utility.yul\":18696:18812   */\n      pop\n      jump\t// out\n        /* \"#utility.yul\":18818:18966   */\n    tag_129:\n        /* \"#utility.yul\":18904:18941   */\n      tag_339\n        /* \"#utility.yul\":18935:18940   */\n      dup2\n        /* \"#utility.yul\":18904:18941   */\n      tag_299\n      jump\t// in\n    tag_339:\n        /* \"#utility.yul\":18897:18902   */\n      dup2\n        /* \"#utility.yul\":18894:18942   */\n      eq\n        /* \"#utility.yul\":18884:18960   */\n      tag_340\n      jumpi\n        /* \"#utility.yul\":18956:18957   */\n      0x00\n        /* \"#utility.yul\":18953:18954   */\n      dup1\n        /* \"#utility.yul\":18946:18958   */\n      revert\n        /* \"#utility.yul\":18884:18960   */\n    tag_340:\n        /* \"#utility.yul\":18818:18966   */\n      pop\n      jump\t// out\n        /* \"#utility.yul\":18972:19094   */\n    tag_139:\n        /* \"#utility.yul\":19045:19069   */\n      tag_342\n        /* \"#utility.yul\":19063:19068   */\n      dup2\n        /* \"#utility.yul\":19045:19069   */\n      tag_239\n      jump\t// in\n    tag_342:\n        /* \"#utility.yul\":19038:19043   */\n      dup2\n        /* \"#utility.yul\":19035:19070   */\n      eq\n        /* \"#utility.yul\":19025:19088   */\n      tag_343\n      jumpi\n        /* \"#utility.yul\":19084:19085   */\n      0x00\n        /* \"#utility.yul\":19081:19082   */\n      dup1\n        /* \"#utility.yul\":19074:19086   */\n      revert\n        /* \"#utility.yul\":19025:19088   */\n    tag_343:\n        /* \"#utility.yul\":18972:19094   */\n      pop\n      jump\t// out\n\n    auxdata: 0xa2646970667358221220f2fd1f8e4486bc04c40c47be95ccec3c6e3b5077be7f4b4d18c61c9622c0aeee64736f6c63430008070033\n}\n",
				"bytecode": {
					"linkReferences": {},
					"object": "608060405234801561001057600080fd5b5033600160006101000a81548173ffffffffffffffffffffffffffffffffffffffff021916908373ffffffffffffffffffffffffffffffffffffffff1602179055506112e0806100616000396000f3fe6080604052600436106100595760003560e01c80631a67ddb8146100b75780633bc5de30146100d357806362adf922146100fe578063777c658f146101155780638585b78814610140578063b69ef8a81461017d576100b2565b366100b25734600360008282546100709190610fba565b925050819055507ff1b03f708b9c39f453fe3f0cef84164c7d6f7df836df0796e1e9c2bce6ee397e33346040516100a8929190610de5565b60405180910390a1005b600080fd5b6100d160048036038101906100cc9190610a9f565b6101a8565b005b3480156100df57600080fd5b506100e8610575565b6040516100f59190610e0e565b60405180910390f35b34801561010a57600080fd5b50610113610762565b005b34801561012157600080fd5b5061012a610854565b6040516101379190610e90565b60405180910390f35b34801561014c57600080fd5b5061016760048036038101906101629190610a5f565b61085e565b6040516101749190610e90565b60405180910390f35b34801561018957600080fd5b50610192610883565b60405161019f9190610e90565b60405180910390f35b600a34116101eb576040517f08c379a00000000000000000000000000000000000000000000000000000000081526004016101e290610e30565b60405180910390fd5b3460008086815260200190815260200160002060003373ffffffffffffffffffffffffffffffffffffffff1673ffffffffffffffffffffffffffffffffffffffff168152602001908152602001600020600082825461024a9190610fba565b9250508190555034600260008282546102639190610fba565b9250508190555060046040518060a001604052803373ffffffffffffffffffffffffffffffffffffffff16815260200142815260200185815260200184815260200134815250908060018154018082558091505060019003906000526020600020906005020160009091909190915060008201518160000160006101000a81548173ffffffffffffffffffffffffffffffffffffffff021916908373ffffffffffffffffffffffffffffffffffffffff16021790555060208201518160010155604082015181600201908051906020019061033f929190610889565b50606082015181600301908051906020019061035c929190610889565b506080820151816004015550503373ffffffffffffffffffffffffffffffffffffffff167ff210be66b6eb8f4db45ba1b1e04a2193e0354b15227735cca9c4b4d12a924272428585346040516103b59493929190610eab565b60405180910390a260008173ffffffffffffffffffffffffffffffffffffffff166370a08231306040518263ffffffff1660e01b81526004016103f89190610d6a565b60206040518083038186803b15801561041057600080fd5b505afa158015610424573d6000803e3d6000fd5b505050506040513d601f19601f820116820180604052508101906104489190610a32565b905080670de0b6b3a76400001115610495576040517f08c379a000000000000000000000000000000000000000000000000000000000815260040161048c90610e50565b60405180910390fd5b8173ffffffffffffffffffffffffffffffffffffffff1663a9059cbb33670de0b6b3a76400006040518363ffffffff1660e01b81526004016104d8929190610dbc565b602060405180830381600087803b1580156104f257600080fd5b505af1158015610506573d6000803e3d6000fd5b505050506040513d601f19601f8201168201806040525081019061052a9190610a05565b507ffda3a3e0e1479b43cb1c701f7576187f4c4ad80768d627387e00184302f7d88e3333670de0b6b3a764000060405161056693929190610d85565b60405180910390a15050505050565b60606004805480602002602001604051908101604052809291908181526020016000905b8282101561075957838290600052602060002090600502016040518060a00160405290816000820160009054906101000a900473ffffffffffffffffffffffffffffffffffffffff1673ffffffffffffffffffffffffffffffffffffffff1673ffffffffffffffffffffffffffffffffffffffff1681526020016001820154815260200160028201805461062c906110be565b80601f0160208091040260200160405190810160405280929190818152602001828054610658906110be565b80156106a55780601f1061067a576101008083540402835291602001916106a5565b820191906000526020600020905b81548152906001019060200180831161068857829003601f168201915b505050505081526020016003820180546106be906110be565b80601f01602080910402602001604051908101604052809291908181526020018280546106ea906110be565b80156107375780601f1061070c57610100808354040283529160200191610737565b820191906000526020600020905b81548152906001019060200180831161071a57829003601f168201915b5050505050815260200160048201548152505081526020019060010190610599565b50505050905090565b600160009054906101000a900473ffffffffffffffffffffffffffffffffffffffff1673ffffffffffffffffffffffffffffffffffffffff163373ffffffffffffffffffffffffffffffffffffffff16146107f2576040517f08c379a00000000000000000000000000000000000000000000000000000000081526004016107e990610e70565b60405180910390fd5b600160009054906101000a900473ffffffffffffffffffffffffffffffffffffffff1673ffffffffffffffffffffffffffffffffffffffff166108fc479081150290604051600060405180830381858888f1935050505061085257600080fd5b565b6000600254905090565b6000602052816000526040600020602052806000526040600020600091509150505481565b60035481565b828054610895906110be565b90600052602060002090601f0160209004810192826108b757600085556108fe565b82601f106108d057805160ff19168380011785556108fe565b828001600101855582156108fe579182015b828111156108fd5782518255916020019190600101906108e2565b5b50905061090b919061090f565b5090565b5b80821115610928576000816000905550600101610910565b5090565b600061093f61093a84610f23565b610efe565b90508281526020810184848401111561095b5761095a6111b3565b5b61096684828561107c565b509392505050565b60008135905061097d8161124e565b92915050565b60008151905061099281611265565b92915050565b6000813590506109a78161127c565b92915050565b600082601f8301126109c2576109c16111ae565b5b81356109d284826020860161092c565b91505092915050565b6000813590506109ea81611293565b92915050565b6000815190506109ff81611293565b92915050565b600060208284031215610a1b57610a1a6111bd565b5b6000610a2984828501610983565b91505092915050565b600060208284031215610a4857610a476111bd565b5b6000610a56848285016109f0565b91505092915050565b60008060408385031215610a7657610a756111bd565b5b6000610a84858286016109db565b9250506020610a958582860161096e565b9150509250929050565b60008060008060808587031215610ab957610ab86111bd565b5b6000610ac7878288016109db565b945050602085013567ffffffffffffffff811115610ae857610ae76111b8565b5b610af4878288016109ad565b935050604085013567ffffffffffffffff811115610b1557610b146111b8565b5b610b21878288016109ad565b9250506060610b3287828801610998565b91505092959194509250565b6000610b4a8383610ccf565b905092915050565b610b5b81611010565b82525050565b610b6a81611010565b82525050565b6000610b7b82610f64565b610b858185610f87565b935083602082028501610b9785610f54565b8060005b85811015610bd35784840389528151610bb48582610b3e565b9450610bbf83610f7a565b925060208a01995050600181019050610b9b565b50829750879550505050505092915050565b610bee8161106a565b82525050565b6000610bff82610f6f565b610c098185610f98565b9350610c1981856020860161108b565b610c22816111c2565b840191505092915050565b6000610c3882610f6f565b610c428185610fa9565b9350610c5281856020860161108b565b610c5b816111c2565b840191505092915050565b6000610c73601e83610fa9565b9150610c7e826111d3565b602082019050919050565b6000610c96600e83610fa9565b9150610ca1826111fc565b602082019050919050565b6000610cb9600983610fa9565b9150610cc482611225565b602082019050919050565b600060a083016000830151610ce76000860182610b52565b506020830151610cfa6020860182610d4c565b5060408301518482036040860152610d128282610bf4565b91505060608301518482036060860152610d2c8282610bf4565b9150506080830151610d416080860182610d4c565b508091505092915050565b610d5581611060565b82525050565b610d6481611060565b82525050565b6000602082019050610d7f6000830184610b61565b92915050565b6000606082019050610d9a6000830186610b61565b610da76020830185610b61565b610db46040830184610be5565b949350505050565b6000604082019050610dd16000830185610b61565b610dde6020830184610be5565b9392505050565b6000604082019050610dfa6000830185610b61565b610e076020830184610d5b565b9392505050565b60006020820190508181036000830152610e288184610b70565b905092915050565b60006020820190508181036000830152610e4981610c66565b9050919050565b60006020820190508181036000830152610e6981610c89565b9050919050565b60006020820190508181036000830152610e8981610cac565b9050919050565b6000602082019050610ea56000830184610d5b565b92915050565b6000608082019050610ec06000830187610d5b565b8181036020830152610ed28186610c2d565b90508181036040830152610ee68185610c2d565b9050610ef56060830184610d5b565b95945050505050565b6000610f08610f19565b9050610f1482826110f0565b919050565b6000604051905090565b600067ffffffffffffffff821115610f3e57610f3d61117f565b5b610f47826111c2565b9050602081019050919050565b6000819050602082019050919050565b600081519050919050565b600081519050919050565b6000602082019050919050565b600082825260208201905092915050565b600082825260208201905092915050565b600082825260208201905092915050565b6000610fc582611060565b9150610fd083611060565b9250827fffffffffffffffffffffffffffffffffffffffffffffffffffffffffffffffff0382111561100557611004611121565b5b828201905092915050565b600061101b82611040565b9050919050565b60008115159050919050565b600061103982611010565b9050919050565b600073ffffffffffffffffffffffffffffffffffffffff82169050919050565b6000819050919050565b600061107582611060565b9050919050565b82818337600083830152505050565b60005b838110156110a957808201518184015260208101905061108e565b838111156110b8576000848401525b50505050565b600060028204905060018216806110d657607f821691505b602082108114156110ea576110e9611150565b5b50919050565b6110f9826111c2565b810181811067ffffffffffffffff821117156111185761111761117f565b5b80604052505050565b7f4e487b7100000000000000000000000000000000000000000000000000000000600052601160045260246000fd5b7f4e487b7100000000000000000000000000000000000000000000000000000000600052602260045260246000fd5b7f4e487b7100000000000000000000000000000000000000000000000000000000600052604160045260246000fd5b600080fd5b600080fd5b600080fd5b600080fd5b6000601f19601f8301169050919050565b7f706c65617365206465706f736974206174206c65617374203130207765690000600082015250565b7f62616c616e6365206973206c6f77000000000000000000000000000000000000600082015250565b7f4e6f74206f776e65720000000000000000000000000000000000000000000000600082015250565b61125781611010565b811461126257600080fd5b50565b61126e81611022565b811461127957600080fd5b50565b6112858161102e565b811461129057600080fd5b50565b61129c81611060565b81146112a757600080fd5b5056fea2646970667358221220f2fd1f8e4486bc04c40c47be95ccec3c6e3b5077be7f4b4d18c61c9622c0aeee64736f6c63430008070033",
					"opcodes": "PUSH1 0x80 PUSH1 0x40 MSTORE CALLVALUE DUP1 ISZERO PUSH2 0x10 JUMPI PUSH1 0x0 DUP1 REVERT JUMPDEST POP CALLER PUSH1 0x1 PUSH1 0x0 PUSH2 0x100 EXP DUP2 SLOAD DUP2 PUSH20 0xFFFFFFFFFFFFFFFFFFFFFFFFFFFFFFFFFFFFFFFF MUL NOT AND SWAP1 DUP4 PUSH20 0xFFFFFFFFFFFFFFFFFFFFFFFFFFFFFFFFFFFFFFFF AND MUL OR SWAP1 SSTORE POP PUSH2 0x12E0 DUP1 PUSH2 0x61 PUSH1 0x0 CODECOPY PUSH1 0x0 RETURN INVALID PUSH1 0x80 PUSH1 0x40 MSTORE PUSH1 0x4 CALLDATASIZE LT PUSH2 0x59 JUMPI PUSH1 0x0 CALLDATALOAD PUSH1 0xE0 SHR DUP1 PUSH4 0x1A67DDB8 EQ PUSH2 0xB7 JUMPI DUP1 PUSH4 0x3BC5DE30 EQ PUSH2 0xD3 JUMPI DUP1 PUSH4 0x62ADF922 EQ PUSH2 0xFE JUMPI DUP1 PUSH4 0x777C658F EQ PUSH2 0x115 JUMPI DUP1 PUSH4 0x8585B788 EQ PUSH2 0x140 JUMPI DUP1 PUSH4 0xB69EF8A8 EQ PUSH2 0x17D JUMPI PUSH2 0xB2 JUMP JUMPDEST CALLDATASIZE PUSH2 0xB2 JUMPI CALLVALUE PUSH1 0x3 PUSH1 0x0 DUP3 DUP3 SLOAD PUSH2 0x70 SWAP2 SWAP1 PUSH2 0xFBA JUMP JUMPDEST SWAP3 POP POP DUP2 SWAP1 SSTORE POP PUSH32 0xF1B03F708B9C39F453FE3F0CEF84164C7D6F7DF836DF0796E1E9C2BCE6EE397E CALLER CALLVALUE PUSH1 0x40 MLOAD PUSH2 0xA8 SWAP3 SWAP2 SWAP1 PUSH2 0xDE5 JUMP JUMPDEST PUSH1 0x40 MLOAD DUP1 SWAP2 SUB SWAP1 LOG1 STOP JUMPDEST PUSH1 0x0 DUP1 REVERT JUMPDEST PUSH2 0xD1 PUSH1 0x4 DUP1 CALLDATASIZE SUB DUP2 ADD SWAP1 PUSH2 0xCC SWAP2 SWAP1 PUSH2 0xA9F JUMP JUMPDEST PUSH2 0x1A8 JUMP JUMPDEST STOP JUMPDEST CALLVALUE DUP1 ISZERO PUSH2 0xDF JUMPI PUSH1 0x0 DUP1 REVERT JUMPDEST POP PUSH2 0xE8 PUSH2 0x575 JUMP JUMPDEST PUSH1 0x40 MLOAD PUSH2 0xF5 SWAP2 SWAP1 PUSH2 0xE0E JUMP JUMPDEST PUSH1 0x40 MLOAD DUP1 SWAP2 SUB SWAP1 RETURN JUMPDEST CALLVALUE DUP1 ISZERO PUSH2 0x10A JUMPI PUSH1 0x0 DUP1 REVERT JUMPDEST POP PUSH2 0x113 PUSH2 0x762 JUMP JUMPDEST STOP JUMPDEST CALLVALUE DUP1 ISZERO PUSH2 0x121 JUMPI PUSH1 0x0 DUP1 REVERT JUMPDEST POP PUSH2 0x12A PUSH2 0x854 JUMP JUMPDEST PUSH1 0x40 MLOAD PUSH2 0x137 SWAP2 SWAP1 PUSH2 0xE90 JUMP JUMPDEST PUSH1 0x40 MLOAD DUP1 SWAP2 SUB SWAP1 RETURN JUMPDEST CALLVALUE DUP1 ISZERO PUSH2 0x14C JUMPI PUSH1 0x0 DUP1 REVERT JUMPDEST POP PUSH2 0x167 PUSH1 0x4 DUP1 CALLDATASIZE SUB DUP2 ADD SWAP1 PUSH2 0x162 SWAP2 SWAP1 PUSH2 0xA5F JUMP JUMPDEST PUSH2 0x85E JUMP JUMPDEST PUSH1 0x40 MLOAD PUSH2 0x174 SWAP2 SWAP1 PUSH2 0xE90 JUMP JUMPDEST PUSH1 0x40 MLOAD DUP1 SWAP2 SUB SWAP1 RETURN JUMPDEST CALLVALUE DUP1 ISZERO PUSH2 0x189 JUMPI PUSH1 0x0 DUP1 REVERT JUMPDEST POP PUSH2 0x192 PUSH2 0x883 JUMP JUMPDEST PUSH1 0x40 MLOAD PUSH2 0x19F SWAP2 SWAP1 PUSH2 0xE90 JUMP JUMPDEST PUSH1 0x40 MLOAD DUP1 SWAP2 SUB SWAP1 RETURN JUMPDEST PUSH1 0xA CALLVALUE GT PUSH2 0x1EB JUMPI PUSH1 0x40 MLOAD PUSH32 0x8C379A000000000000000000000000000000000000000000000000000000000 DUP2 MSTORE PUSH1 0x4 ADD PUSH2 0x1E2 SWAP1 PUSH2 0xE30 JUMP JUMPDEST PUSH1 0x40 MLOAD DUP1 SWAP2 SUB SWAP1 REVERT JUMPDEST CALLVALUE PUSH1 0x0 DUP1 DUP7 DUP2 MSTORE PUSH1 0x20 ADD SWAP1 DUP2 MSTORE PUSH1 0x20 ADD PUSH1 0x0 KECCAK256 PUSH1 0x0 CALLER PUSH20 0xFFFFFFFFFFFFFFFFFFFFFFFFFFFFFFFFFFFFFFFF AND PUSH20 0xFFFFFFFFFFFFFFFFFFFFFFFFFFFFFFFFFFFFFFFF AND DUP2 MSTORE PUSH1 0x20 ADD SWAP1 DUP2 MSTORE PUSH1 0x20 ADD PUSH1 0x0 KECCAK256 PUSH1 0x0 DUP3 DUP3 SLOAD PUSH2 0x24A SWAP2 SWAP1 PUSH2 0xFBA JUMP JUMPDEST SWAP3 POP POP DUP2 SWAP1 SSTORE POP CALLVALUE PUSH1 0x2 PUSH1 0x0 DUP3 DUP3 SLOAD PUSH2 0x263 SWAP2 SWAP1 PUSH2 0xFBA JUMP JUMPDEST SWAP3 POP POP DUP2 SWAP1 SSTORE POP PUSH1 0x4 PUSH1 0x40 MLOAD DUP1 PUSH1 0xA0 ADD PUSH1 0x40 MSTORE DUP1 CALLER PUSH20 0xFFFFFFFFFFFFFFFFFFFFFFFFFFFFFFFFFFFFFFFF AND DUP2 MSTORE PUSH1 0x20 ADD TIMESTAMP DUP2 MSTORE PUSH1 0x20 ADD DUP6 DUP2 MSTORE PUSH1 0x20 ADD DUP5 DUP2 MSTORE PUSH1 0x20 ADD CALLVALUE DUP2 MSTORE POP SWAP1 DUP1 PUSH1 0x1 DUP2 SLOAD ADD DUP1 DUP3 SSTORE DUP1 SWAP2 POP POP PUSH1 0x1 SWAP1 SUB SWAP1 PUSH1 0x0 MSTORE PUSH1 0x20 PUSH1 0x0 KECCAK256 SWAP1 PUSH1 0x5 MUL ADD PUSH1 0x0 SWAP1 SWAP2 SWAP1 SWAP2 SWAP1 SWAP2 POP PUSH1 0x0 DUP3 ADD MLOAD DUP2 PUSH1 0x0 ADD PUSH1 0x0 PUSH2 0x100 EXP DUP2 SLOAD DUP2 PUSH20 0xFFFFFFFFFFFFFFFFFFFFFFFFFFFFFFFFFFFFFFFF MUL NOT AND SWAP1 DUP4 PUSH20 0xFFFFFFFFFFFFFFFFFFFFFFFFFFFFFFFFFFFFFFFF AND MUL OR SWAP1 SSTORE POP PUSH1 0x20 DUP3 ADD MLOAD DUP2 PUSH1 0x1 ADD SSTORE PUSH1 0x40 DUP3 ADD MLOAD DUP2 PUSH1 0x2 ADD SWAP1 DUP1 MLOAD SWAP1 PUSH1 0x20 ADD SWAP1 PUSH2 0x33F SWAP3 SWAP2 SWAP1 PUSH2 0x889 JUMP JUMPDEST POP PUSH1 0x60 DUP3 ADD MLOAD DUP2 PUSH1 0x3 ADD SWAP1 DUP1 MLOAD SWAP1 PUSH1 0x20 ADD SWAP1 PUSH2 0x35C SWAP3 SWAP2 SWAP1 PUSH2 0x889 JUMP JUMPDEST POP PUSH1 0x80 DUP3 ADD MLOAD DUP2 PUSH1 0x4 ADD SSTORE POP POP CALLER PUSH20 0xFFFFFFFFFFFFFFFFFFFFFFFFFFFFFFFFFFFFFFFF AND PUSH32 0xF210BE66B6EB8F4DB45BA1B1E04A2193E0354B15227735CCA9C4B4D12A924272 TIMESTAMP DUP6 DUP6 CALLVALUE PUSH1 0x40 MLOAD PUSH2 0x3B5 SWAP5 SWAP4 SWAP3 SWAP2 SWAP1 PUSH2 0xEAB JUMP JUMPDEST PUSH1 0x40 MLOAD DUP1 SWAP2 SUB SWAP1 LOG2 PUSH1 0x0 DUP2 PUSH20 0xFFFFFFFFFFFFFFFFFFFFFFFFFFFFFFFFFFFFFFFF AND PUSH4 0x70A08231 ADDRESS PUSH1 0x40 MLOAD DUP3 PUSH4 0xFFFFFFFF AND PUSH1 0xE0 SHL DUP2 MSTORE PUSH1 0x4 ADD PUSH2 0x3F8 SWAP2 SWAP1 PUSH2 0xD6A JUMP JUMPDEST PUSH1 0x20 PUSH1 0x40 MLOAD DUP1 DUP4 SUB DUP2 DUP7 DUP1 EXTCODESIZE ISZERO DUP1 ISZERO PUSH2 0x410 JUMPI PUSH1 0x0 DUP1 REVERT JUMPDEST POP GAS STATICCALL ISZERO DUP1 ISZERO PUSH2 0x424 JUMPI RETURNDATASIZE PUSH1 0x0 DUP1 RETURNDATACOPY RETURNDATASIZE PUSH1 0x0 REVERT JUMPDEST POP POP POP POP PUSH1 0x40 MLOAD RETURNDATASIZE PUSH1 0x1F NOT PUSH1 0x1F DUP3 ADD AND DUP3 ADD DUP1 PUSH1 0x40 MSTORE POP DUP2 ADD SWAP1 PUSH2 0x448 SWAP2 SWAP1 PUSH2 0xA32 JUMP JUMPDEST SWAP1 POP DUP1 PUSH8 0xDE0B6B3A7640000 GT ISZERO PUSH2 0x495 JUMPI PUSH1 0x40 MLOAD PUSH32 0x8C379A000000000000000000000000000000000000000000000000000000000 DUP2 MSTORE PUSH1 0x4 ADD PUSH2 0x48C SWAP1 PUSH2 0xE50 JUMP JUMPDEST PUSH1 0x40 MLOAD DUP1 SWAP2 SUB SWAP1 REVERT JUMPDEST DUP2 PUSH20 0xFFFFFFFFFFFFFFFFFFFFFFFFFFFFFFFFFFFFFFFF AND PUSH4 0xA9059CBB CALLER PUSH8 0xDE0B6B3A7640000 PUSH1 0x40 MLOAD DUP4 PUSH4 0xFFFFFFFF AND PUSH1 0xE0 SHL DUP2 MSTORE PUSH1 0x4 ADD PUSH2 0x4D8 SWAP3 SWAP2 SWAP1 PUSH2 0xDBC JUMP JUMPDEST PUSH1 0x20 PUSH1 0x40 MLOAD DUP1 DUP4 SUB DUP2 PUSH1 0x0 DUP8 DUP1 EXTCODESIZE ISZERO DUP1 ISZERO PUSH2 0x4F2 JUMPI PUSH1 0x0 DUP1 REVERT JUMPDEST POP GAS CALL ISZERO DUP1 ISZERO PUSH2 0x506 JUMPI RETURNDATASIZE PUSH1 0x0 DUP1 RETURNDATACOPY RETURNDATASIZE PUSH1 0x0 REVERT JUMPDEST POP POP POP POP PUSH1 0x40 MLOAD RETURNDATASIZE PUSH1 0x1F NOT PUSH1 0x1F DUP3 ADD AND DUP3 ADD DUP1 PUSH1 0x40 MSTORE POP DUP2 ADD SWAP1 PUSH2 0x52A SWAP2 SWAP1 PUSH2 0xA05 JUMP JUMPDEST POP PUSH32 0xFDA3A3E0E1479B43CB1C701F7576187F4C4AD80768D627387E00184302F7D88E CALLER CALLER PUSH8 0xDE0B6B3A7640000 PUSH1 0x40 MLOAD PUSH2 0x566 SWAP4 SWAP3 SWAP2 SWAP1 PUSH2 0xD85 JUMP JUMPDEST PUSH1 0x40 MLOAD DUP1 SWAP2 SUB SWAP1 LOG1 POP POP POP POP POP JUMP JUMPDEST PUSH1 0x60 PUSH1 0x4 DUP1 SLOAD DUP1 PUSH1 0x20 MUL PUSH1 0x20 ADD PUSH1 0x40 MLOAD SWAP1 DUP2 ADD PUSH1 0x40 MSTORE DUP1 SWAP3 SWAP2 SWAP1 DUP2 DUP2 MSTORE PUSH1 0x20 ADD PUSH1 0x0 SWAP1 JUMPDEST DUP3 DUP3 LT ISZERO PUSH2 0x759 JUMPI DUP4 DUP3 SWAP1 PUSH1 0x0 MSTORE PUSH1 0x20 PUSH1 0x0 KECCAK256 SWAP1 PUSH1 0x5 MUL ADD PUSH1 0x40 MLOAD DUP1 PUSH1 0xA0 ADD PUSH1 0x40 MSTORE SWAP1 DUP2 PUSH1 0x0 DUP3 ADD PUSH1 0x0 SWAP1 SLOAD SWAP1 PUSH2 0x100 EXP SWAP1 DIV PUSH20 0xFFFFFFFFFFFFFFFFFFFFFFFFFFFFFFFFFFFFFFFF AND PUSH20 0xFFFFFFFFFFFFFFFFFFFFFFFFFFFFFFFFFFFFFFFF AND PUSH20 0xFFFFFFFFFFFFFFFFFFFFFFFFFFFFFFFFFFFFFFFF AND DUP2 MSTORE PUSH1 0x20 ADD PUSH1 0x1 DUP3 ADD SLOAD DUP2 MSTORE PUSH1 0x20 ADD PUSH1 0x2 DUP3 ADD DUP1 SLOAD PUSH2 0x62C SWAP1 PUSH2 0x10BE JUMP JUMPDEST DUP1 PUSH1 0x1F ADD PUSH1 0x20 DUP1 SWAP2 DIV MUL PUSH1 0x20 ADD PUSH1 0x40 MLOAD SWAP1 DUP2 ADD PUSH1 0x40 MSTORE DUP1 SWAP3 SWAP2 SWAP1 DUP2 DUP2 MSTORE PUSH1 0x20 ADD DUP3 DUP1 SLOAD PUSH2 0x658 SWAP1 PUSH2 0x10BE JUMP JUMPDEST DUP1 ISZERO PUSH2 0x6A5 JUMPI DUP1 PUSH1 0x1F LT PUSH2 0x67A JUMPI PUSH2 0x100 DUP1 DUP4 SLOAD DIV MUL DUP4 MSTORE SWAP2 PUSH1 0x20 ADD SWAP2 PUSH2 0x6A5 JUMP JUMPDEST DUP3 ADD SWAP2 SWAP1 PUSH1 0x0 MSTORE PUSH1 0x20 PUSH1 0x0 KECCAK256 SWAP1 JUMPDEST DUP2 SLOAD DUP2 MSTORE SWAP1 PUSH1 0x1 ADD SWAP1 PUSH1 0x20 ADD DUP1 DUP4 GT PUSH2 0x688 JUMPI DUP3 SWAP1 SUB PUSH1 0x1F AND DUP3 ADD SWAP2 JUMPDEST POP POP POP POP POP DUP2 MSTORE PUSH1 0x20 ADD PUSH1 0x3 DUP3 ADD DUP1 SLOAD PUSH2 0x6BE SWAP1 PUSH2 0x10BE JUMP JUMPDEST DUP1 PUSH1 0x1F ADD PUSH1 0x20 DUP1 SWAP2 DIV MUL PUSH1 0x20 ADD PUSH1 0x40 MLOAD SWAP1 DUP2 ADD PUSH1 0x40 MSTORE DUP1 SWAP3 SWAP2 SWAP1 DUP2 DUP2 MSTORE PUSH1 0x20 ADD DUP3 DUP1 SLOAD PUSH2 0x6EA SWAP1 PUSH2 0x10BE JUMP JUMPDEST DUP1 ISZERO PUSH2 0x737 JUMPI DUP1 PUSH1 0x1F LT PUSH2 0x70C JUMPI PUSH2 0x100 DUP1 DUP4 SLOAD DIV MUL DUP4 MSTORE SWAP2 PUSH1 0x20 ADD SWAP2 PUSH2 0x737 JUMP JUMPDEST DUP3 ADD SWAP2 SWAP1 PUSH1 0x0 MSTORE PUSH1 0x20 PUSH1 0x0 KECCAK256 SWAP1 JUMPDEST DUP2 SLOAD DUP2 MSTORE SWAP1 PUSH1 0x1 ADD SWAP1 PUSH1 0x20 ADD DUP1 DUP4 GT PUSH2 0x71A JUMPI DUP3 SWAP1 SUB PUSH1 0x1F AND DUP3 ADD SWAP2 JUMPDEST POP POP POP POP POP DUP2 MSTORE PUSH1 0x20 ADD PUSH1 0x4 DUP3 ADD SLOAD DUP2 MSTORE POP POP DUP2 MSTORE PUSH1 0x20 ADD SWAP1 PUSH1 0x1 ADD SWAP1 PUSH2 0x599 JUMP JUMPDEST POP POP POP POP SWAP1 POP SWAP1 JUMP JUMPDEST PUSH1 0x1 PUSH1 0x0 SWAP1 SLOAD SWAP1 PUSH2 0x100 EXP SWAP1 DIV PUSH20 0xFFFFFFFFFFFFFFFFFFFFFFFFFFFFFFFFFFFFFFFF AND PUSH20 0xFFFFFFFFFFFFFFFFFFFFFFFFFFFFFFFFFFFFFFFF AND CALLER PUSH20 0xFFFFFFFFFFFFFFFFFFFFFFFFFFFFFFFFFFFFFFFF AND EQ PUSH2 0x7F2 JUMPI PUSH1 0x40 MLOAD PUSH32 0x8C379A000000000000000000000000000000000000000000000000000000000 DUP2 MSTORE PUSH1 0x4 ADD PUSH2 0x7E9 SWAP1 PUSH2 0xE70 JUMP JUMPDEST PUSH1 0x40 MLOAD DUP1 SWAP2 SUB SWAP1 REVERT JUMPDEST PUSH1 0x1 PUSH1 0x0 SWAP1 SLOAD SWAP1 PUSH2 0x100 EXP SWAP1 DIV PUSH20 0xFFFFFFFFFFFFFFFFFFFFFFFFFFFFFFFFFFFFFFFF AND PUSH20 0xFFFFFFFFFFFFFFFFFFFFFFFFFFFFFFFFFFFFFFFF AND PUSH2 0x8FC SELFBALANCE SWAP1 DUP2 ISZERO MUL SWAP1 PUSH1 0x40 MLOAD PUSH1 0x0 PUSH1 0x40 MLOAD DUP1 DUP4 SUB DUP2 DUP6 DUP9 DUP9 CALL SWAP4 POP POP POP POP PUSH2 0x852 JUMPI PUSH1 0x0 DUP1 REVERT JUMPDEST JUMP JUMPDEST PUSH1 0x0 PUSH1 0x2 SLOAD SWAP1 POP SWAP1 JUMP JUMPDEST PUSH1 0x0 PUSH1 0x20 MSTORE DUP2 PUSH1 0x0 MSTORE PUSH1 0x40 PUSH1 0x0 KECCAK256 PUSH1 0x20 MSTORE DUP1 PUSH1 0x0 MSTORE PUSH1 0x40 PUSH1 0x0 KECCAK256 PUSH1 0x0 SWAP2 POP SWAP2 POP POP SLOAD DUP2 JUMP JUMPDEST PUSH1 0x3 SLOAD DUP2 JUMP JUMPDEST DUP3 DUP1 SLOAD PUSH2 0x895 SWAP1 PUSH2 0x10BE JUMP JUMPDEST SWAP1 PUSH1 0x0 MSTORE PUSH1 0x20 PUSH1 0x0 KECCAK256 SWAP1 PUSH1 0x1F ADD PUSH1 0x20 SWAP1 DIV DUP2 ADD SWAP3 DUP3 PUSH2 0x8B7 JUMPI PUSH1 0x0 DUP6 SSTORE PUSH2 0x8FE JUMP JUMPDEST DUP3 PUSH1 0x1F LT PUSH2 0x8D0 JUMPI DUP1 MLOAD PUSH1 0xFF NOT AND DUP4 DUP1 ADD OR DUP6 SSTORE PUSH2 0x8FE JUMP JUMPDEST DUP3 DUP1 ADD PUSH1 0x1 ADD DUP6 SSTORE DUP3 ISZERO PUSH2 0x8FE JUMPI SWAP2 DUP3 ADD JUMPDEST DUP3 DUP2 GT ISZERO PUSH2 0x8FD JUMPI DUP3 MLOAD DUP3 SSTORE SWAP2 PUSH1 0x20 ADD SWAP2 SWAP1 PUSH1 0x1 ADD SWAP1 PUSH2 0x8E2 JUMP JUMPDEST JUMPDEST POP SWAP1 POP PUSH2 0x90B SWAP2 SWAP1 PUSH2 0x90F JUMP JUMPDEST POP SWAP1 JUMP JUMPDEST JUMPDEST DUP1 DUP3 GT ISZERO PUSH2 0x928 JUMPI PUSH1 0x0 DUP2 PUSH1 0x0 SWAP1 SSTORE POP PUSH1 0x1 ADD PUSH2 0x910 JUMP JUMPDEST POP SWAP1 JUMP JUMPDEST PUSH1 0x0 PUSH2 0x93F PUSH2 0x93A DUP5 PUSH2 0xF23 JUMP JUMPDEST PUSH2 0xEFE JUMP JUMPDEST SWAP1 POP DUP3 DUP2 MSTORE PUSH1 0x20 DUP2 ADD DUP5 DUP5 DUP5 ADD GT ISZERO PUSH2 0x95B JUMPI PUSH2 0x95A PUSH2 0x11B3 JUMP JUMPDEST JUMPDEST PUSH2 0x966 DUP5 DUP3 DUP6 PUSH2 0x107C JUMP JUMPDEST POP SWAP4 SWAP3 POP POP POP JUMP JUMPDEST PUSH1 0x0 DUP2 CALLDATALOAD SWAP1 POP PUSH2 0x97D DUP2 PUSH2 0x124E JUMP JUMPDEST SWAP3 SWAP2 POP POP JUMP JUMPDEST PUSH1 0x0 DUP2 MLOAD SWAP1 POP PUSH2 0x992 DUP2 PUSH2 0x1265 JUMP JUMPDEST SWAP3 SWAP2 POP POP JUMP JUMPDEST PUSH1 0x0 DUP2 CALLDATALOAD SWAP1 POP PUSH2 0x9A7 DUP2 PUSH2 0x127C JUMP JUMPDEST SWAP3 SWAP2 POP POP JUMP JUMPDEST PUSH1 0x0 DUP3 PUSH1 0x1F DUP4 ADD SLT PUSH2 0x9C2 JUMPI PUSH2 0x9C1 PUSH2 0x11AE JUMP JUMPDEST JUMPDEST DUP2 CALLDATALOAD PUSH2 0x9D2 DUP5 DUP3 PUSH1 0x20 DUP7 ADD PUSH2 0x92C JUMP JUMPDEST SWAP2 POP POP SWAP3 SWAP2 POP POP JUMP JUMPDEST PUSH1 0x0 DUP2 CALLDATALOAD SWAP1 POP PUSH2 0x9EA DUP2 PUSH2 0x1293 JUMP JUMPDEST SWAP3 SWAP2 POP POP JUMP JUMPDEST PUSH1 0x0 DUP2 MLOAD SWAP1 POP PUSH2 0x9FF DUP2 PUSH2 0x1293 JUMP JUMPDEST SWAP3 SWAP2 POP POP JUMP JUMPDEST PUSH1 0x0 PUSH1 0x20 DUP3 DUP5 SUB SLT ISZERO PUSH2 0xA1B JUMPI PUSH2 0xA1A PUSH2 0x11BD JUMP JUMPDEST JUMPDEST PUSH1 0x0 PUSH2 0xA29 DUP5 DUP3 DUP6 ADD PUSH2 0x983 JUMP JUMPDEST SWAP2 POP POP SWAP3 SWAP2 POP POP JUMP JUMPDEST PUSH1 0x0 PUSH1 0x20 DUP3 DUP5 SUB SLT ISZERO PUSH2 0xA48 JUMPI PUSH2 0xA47 PUSH2 0x11BD JUMP JUMPDEST JUMPDEST PUSH1 0x0 PUSH2 0xA56 DUP5 DUP3 DUP6 ADD PUSH2 0x9F0 JUMP JUMPDEST SWAP2 POP POP SWAP3 SWAP2 POP POP JUMP JUMPDEST PUSH1 0x0 DUP1 PUSH1 0x40 DUP4 DUP6 SUB SLT ISZERO PUSH2 0xA76 JUMPI PUSH2 0xA75 PUSH2 0x11BD JUMP JUMPDEST JUMPDEST PUSH1 0x0 PUSH2 0xA84 DUP6 DUP3 DUP7 ADD PUSH2 0x9DB JUMP JUMPDEST SWAP3 POP POP PUSH1 0x20 PUSH2 0xA95 DUP6 DUP3 DUP7 ADD PUSH2 0x96E JUMP JUMPDEST SWAP2 POP POP SWAP3 POP SWAP3 SWAP1 POP JUMP JUMPDEST PUSH1 0x0 DUP1 PUSH1 0x0 DUP1 PUSH1 0x80 DUP6 DUP8 SUB SLT ISZERO PUSH2 0xAB9 JUMPI PUSH2 0xAB8 PUSH2 0x11BD JUMP JUMPDEST JUMPDEST PUSH1 0x0 PUSH2 0xAC7 DUP8 DUP3 DUP9 ADD PUSH2 0x9DB JUMP JUMPDEST SWAP5 POP POP PUSH1 0x20 DUP6 ADD CALLDATALOAD PUSH8 0xFFFFFFFFFFFFFFFF DUP2 GT ISZERO PUSH2 0xAE8 JUMPI PUSH2 0xAE7 PUSH2 0x11B8 JUMP JUMPDEST JUMPDEST PUSH2 0xAF4 DUP8 DUP3 DUP9 ADD PUSH2 0x9AD JUMP JUMPDEST SWAP4 POP POP PUSH1 0x40 DUP6 ADD CALLDATALOAD PUSH8 0xFFFFFFFFFFFFFFFF DUP2 GT ISZERO PUSH2 0xB15 JUMPI PUSH2 0xB14 PUSH2 0x11B8 JUMP JUMPDEST JUMPDEST PUSH2 0xB21 DUP8 DUP3 DUP9 ADD PUSH2 0x9AD JUMP JUMPDEST SWAP3 POP POP PUSH1 0x60 PUSH2 0xB32 DUP8 DUP3 DUP9 ADD PUSH2 0x998 JUMP JUMPDEST SWAP2 POP POP SWAP3 SWAP6 SWAP2 SWAP5 POP SWAP3 POP JUMP JUMPDEST PUSH1 0x0 PUSH2 0xB4A DUP4 DUP4 PUSH2 0xCCF JUMP JUMPDEST SWAP1 POP SWAP3 SWAP2 POP POP JUMP JUMPDEST PUSH2 0xB5B DUP2 PUSH2 0x1010 JUMP JUMPDEST DUP3 MSTORE POP POP JUMP JUMPDEST PUSH2 0xB6A DUP2 PUSH2 0x1010 JUMP JUMPDEST DUP3 MSTORE POP POP JUMP JUMPDEST PUSH1 0x0 PUSH2 0xB7B DUP3 PUSH2 0xF64 JUMP JUMPDEST PUSH2 0xB85 DUP2 DUP6 PUSH2 0xF87 JUMP JUMPDEST SWAP4 POP DUP4 PUSH1 0x20 DUP3 MUL DUP6 ADD PUSH2 0xB97 DUP6 PUSH2 0xF54 JUMP JUMPDEST DUP1 PUSH1 0x0 JUMPDEST DUP6 DUP2 LT ISZERO PUSH2 0xBD3 JUMPI DUP5 DUP5 SUB DUP10 MSTORE DUP2 MLOAD PUSH2 0xBB4 DUP6 DUP3 PUSH2 0xB3E JUMP JUMPDEST SWAP5 POP PUSH2 0xBBF DUP4 PUSH2 0xF7A JUMP JUMPDEST SWAP3 POP PUSH1 0x20 DUP11 ADD SWAP10 POP POP PUSH1 0x1 DUP2 ADD SWAP1 POP PUSH2 0xB9B JUMP JUMPDEST POP DUP3 SWAP8 POP DUP8 SWAP6 POP POP POP POP POP POP SWAP3 SWAP2 POP POP JUMP JUMPDEST PUSH2 0xBEE DUP2 PUSH2 0x106A JUMP JUMPDEST DUP3 MSTORE POP POP JUMP JUMPDEST PUSH1 0x0 PUSH2 0xBFF DUP3 PUSH2 0xF6F JUMP JUMPDEST PUSH2 0xC09 DUP2 DUP6 PUSH2 0xF98 JUMP JUMPDEST SWAP4 POP PUSH2 0xC19 DUP2 DUP6 PUSH1 0x20 DUP7 ADD PUSH2 0x108B JUMP JUMPDEST PUSH2 0xC22 DUP2 PUSH2 0x11C2 JUMP JUMPDEST DUP5 ADD SWAP2 POP POP SWAP3 SWAP2 POP POP JUMP JUMPDEST PUSH1 0x0 PUSH2 0xC38 DUP3 PUSH2 0xF6F JUMP JUMPDEST PUSH2 0xC42 DUP2 DUP6 PUSH2 0xFA9 JUMP JUMPDEST SWAP4 POP PUSH2 0xC52 DUP2 DUP6 PUSH1 0x20 DUP7 ADD PUSH2 0x108B JUMP JUMPDEST PUSH2 0xC5B DUP2 PUSH2 0x11C2 JUMP JUMPDEST DUP5 ADD SWAP2 POP POP SWAP3 SWAP2 POP POP JUMP JUMPDEST PUSH1 0x0 PUSH2 0xC73 PUSH1 0x1E DUP4 PUSH2 0xFA9 JUMP JUMPDEST SWAP2 POP PUSH2 0xC7E DUP3 PUSH2 0x11D3 JUMP JUMPDEST PUSH1 0x20 DUP3 ADD SWAP1 POP SWAP2 SWAP1 POP JUMP JUMPDEST PUSH1 0x0 PUSH2 0xC96 PUSH1 0xE DUP4 PUSH2 0xFA9 JUMP JUMPDEST SWAP2 POP PUSH2 0xCA1 DUP3 PUSH2 0x11FC JUMP JUMPDEST PUSH1 0x20 DUP3 ADD SWAP1 POP SWAP2 SWAP1 POP JUMP JUMPDEST PUSH1 0x0 PUSH2 0xCB9 PUSH1 0x9 DUP4 PUSH2 0xFA9 JUMP JUMPDEST SWAP2 POP PUSH2 0xCC4 DUP3 PUSH2 0x1225 JUMP JUMPDEST PUSH1 0x20 DUP3 ADD SWAP1 POP SWAP2 SWAP1 POP JUMP JUMPDEST PUSH1 0x0 PUSH1 0xA0 DUP4 ADD PUSH1 0x0 DUP4 ADD MLOAD PUSH2 0xCE7 PUSH1 0x0 DUP7 ADD DUP3 PUSH2 0xB52 JUMP JUMPDEST POP PUSH1 0x20 DUP4 ADD MLOAD PUSH2 0xCFA PUSH1 0x20 DUP7 ADD DUP3 PUSH2 0xD4C JUMP JUMPDEST POP PUSH1 0x40 DUP4 ADD MLOAD DUP5 DUP3 SUB PUSH1 0x40 DUP7 ADD MSTORE PUSH2 0xD12 DUP3 DUP3 PUSH2 0xBF4 JUMP JUMPDEST SWAP2 POP POP PUSH1 0x60 DUP4 ADD MLOAD DUP5 DUP3 SUB PUSH1 0x60 DUP7 ADD MSTORE PUSH2 0xD2C DUP3 DUP3 PUSH2 0xBF4 JUMP JUMPDEST SWAP2 POP POP PUSH1 0x80 DUP4 ADD MLOAD PUSH2 0xD41 PUSH1 0x80 DUP7 ADD DUP3 PUSH2 0xD4C JUMP JUMPDEST POP DUP1 SWAP2 POP POP SWAP3 SWAP2 POP POP JUMP JUMPDEST PUSH2 0xD55 DUP2 PUSH2 0x1060 JUMP JUMPDEST DUP3 MSTORE POP POP JUMP JUMPDEST PUSH2 0xD64 DUP2 PUSH2 0x1060 JUMP JUMPDEST DUP3 MSTORE POP POP JUMP JUMPDEST PUSH1 0x0 PUSH1 0x20 DUP3 ADD SWAP1 POP PUSH2 0xD7F PUSH1 0x0 DUP4 ADD DUP5 PUSH2 0xB61 JUMP JUMPDEST SWAP3 SWAP2 POP POP JUMP JUMPDEST PUSH1 0x0 PUSH1 0x60 DUP3 ADD SWAP1 POP PUSH2 0xD9A PUSH1 0x0 DUP4 ADD DUP7 PUSH2 0xB61 JUMP JUMPDEST PUSH2 0xDA7 PUSH1 0x20 DUP4 ADD DUP6 PUSH2 0xB61 JUMP JUMPDEST PUSH2 0xDB4 PUSH1 0x40 DUP4 ADD DUP5 PUSH2 0xBE5 JUMP JUMPDEST SWAP5 SWAP4 POP POP POP POP JUMP JUMPDEST PUSH1 0x0 PUSH1 0x40 DUP3 ADD SWAP1 POP PUSH2 0xDD1 PUSH1 0x0 DUP4 ADD DUP6 PUSH2 0xB61 JUMP JUMPDEST PUSH2 0xDDE PUSH1 0x20 DUP4 ADD DUP5 PUSH2 0xBE5 JUMP JUMPDEST SWAP4 SWAP3 POP POP POP JUMP JUMPDEST PUSH1 0x0 PUSH1 0x40 DUP3 ADD SWAP1 POP PUSH2 0xDFA PUSH1 0x0 DUP4 ADD DUP6 PUSH2 0xB61 JUMP JUMPDEST PUSH2 0xE07 PUSH1 0x20 DUP4 ADD DUP5 PUSH2 0xD5B JUMP JUMPDEST SWAP4 SWAP3 POP POP POP JUMP JUMPDEST PUSH1 0x0 PUSH1 0x20 DUP3 ADD SWAP1 POP DUP2 DUP2 SUB PUSH1 0x0 DUP4 ADD MSTORE PUSH2 0xE28 DUP2 DUP5 PUSH2 0xB70 JUMP JUMPDEST SWAP1 POP SWAP3 SWAP2 POP POP JUMP JUMPDEST PUSH1 0x0 PUSH1 0x20 DUP3 ADD SWAP1 POP DUP2 DUP2 SUB PUSH1 0x0 DUP4 ADD MSTORE PUSH2 0xE49 DUP2 PUSH2 0xC66 JUMP JUMPDEST SWAP1 POP SWAP2 SWAP1 POP JUMP JUMPDEST PUSH1 0x0 PUSH1 0x20 DUP3 ADD SWAP1 POP DUP2 DUP2 SUB PUSH1 0x0 DUP4 ADD MSTORE PUSH2 0xE69 DUP2 PUSH2 0xC89 JUMP JUMPDEST SWAP1 POP SWAP2 SWAP1 POP JUMP JUMPDEST PUSH1 0x0 PUSH1 0x20 DUP3 ADD SWAP1 POP DUP2 DUP2 SUB PUSH1 0x0 DUP4 ADD MSTORE PUSH2 0xE89 DUP2 PUSH2 0xCAC JUMP JUMPDEST SWAP1 POP SWAP2 SWAP1 POP JUMP JUMPDEST PUSH1 0x0 PUSH1 0x20 DUP3 ADD SWAP1 POP PUSH2 0xEA5 PUSH1 0x0 DUP4 ADD DUP5 PUSH2 0xD5B JUMP JUMPDEST SWAP3 SWAP2 POP POP JUMP JUMPDEST PUSH1 0x0 PUSH1 0x80 DUP3 ADD SWAP1 POP PUSH2 0xEC0 PUSH1 0x0 DUP4 ADD DUP8 PUSH2 0xD5B JUMP JUMPDEST DUP2 DUP2 SUB PUSH1 0x20 DUP4 ADD MSTORE PUSH2 0xED2 DUP2 DUP7 PUSH2 0xC2D JUMP JUMPDEST SWAP1 POP DUP2 DUP2 SUB PUSH1 0x40 DUP4 ADD MSTORE PUSH2 0xEE6 DUP2 DUP6 PUSH2 0xC2D JUMP JUMPDEST SWAP1 POP PUSH2 0xEF5 PUSH1 0x60 DUP4 ADD DUP5 PUSH2 0xD5B JUMP JUMPDEST SWAP6 SWAP5 POP POP POP POP POP JUMP JUMPDEST PUSH1 0x0 PUSH2 0xF08 PUSH2 0xF19 JUMP JUMPDEST SWAP1 POP PUSH2 0xF14 DUP3 DUP3 PUSH2 0x10F0 JUMP JUMPDEST SWAP2 SWAP1 POP JUMP JUMPDEST PUSH1 0x0 PUSH1 0x40 MLOAD SWAP1 POP SWAP1 JUMP JUMPDEST PUSH1 0x0 PUSH8 0xFFFFFFFFFFFFFFFF DUP3 GT ISZERO PUSH2 0xF3E JUMPI PUSH2 0xF3D PUSH2 0x117F JUMP JUMPDEST JUMPDEST PUSH2 0xF47 DUP3 PUSH2 0x11C2 JUMP JUMPDEST SWAP1 POP PUSH1 0x20 DUP2 ADD SWAP1 POP SWAP2 SWAP1 POP JUMP JUMPDEST PUSH1 0x0 DUP2 SWAP1 POP PUSH1 0x20 DUP3 ADD SWAP1 POP SWAP2 SWAP1 POP JUMP JUMPDEST PUSH1 0x0 DUP2 MLOAD SWAP1 POP SWAP2 SWAP1 POP JUMP JUMPDEST PUSH1 0x0 DUP2 MLOAD SWAP1 POP SWAP2 SWAP1 POP JUMP JUMPDEST PUSH1 0x0 PUSH1 0x20 DUP3 ADD SWAP1 POP SWAP2 SWAP1 POP JUMP JUMPDEST PUSH1 0x0 DUP3 DUP3 MSTORE PUSH1 0x20 DUP3 ADD SWAP1 POP SWAP3 SWAP2 POP POP JUMP JUMPDEST PUSH1 0x0 DUP3 DUP3 MSTORE PUSH1 0x20 DUP3 ADD SWAP1 POP SWAP3 SWAP2 POP POP JUMP JUMPDEST PUSH1 0x0 DUP3 DUP3 MSTORE PUSH1 0x20 DUP3 ADD SWAP1 POP SWAP3 SWAP2 POP POP JUMP JUMPDEST PUSH1 0x0 PUSH2 0xFC5 DUP3 PUSH2 0x1060 JUMP JUMPDEST SWAP2 POP PUSH2 0xFD0 DUP4 PUSH2 0x1060 JUMP JUMPDEST SWAP3 POP DUP3 PUSH32 0xFFFFFFFFFFFFFFFFFFFFFFFFFFFFFFFFFFFFFFFFFFFFFFFFFFFFFFFFFFFFFFFF SUB DUP3 GT ISZERO PUSH2 0x1005 JUMPI PUSH2 0x1004 PUSH2 0x1121 JUMP JUMPDEST JUMPDEST DUP3 DUP3 ADD SWAP1 POP SWAP3 SWAP2 POP POP JUMP JUMPDEST PUSH1 0x0 PUSH2 0x101B DUP3 PUSH2 0x1040 JUMP JUMPDEST SWAP1 POP SWAP2 SWAP1 POP JUMP JUMPDEST PUSH1 0x0 DUP2 ISZERO ISZERO SWAP1 POP SWAP2 SWAP1 POP JUMP JUMPDEST PUSH1 0x0 PUSH2 0x1039 DUP3 PUSH2 0x1010 JUMP JUMPDEST SWAP1 POP SWAP2 SWAP1 POP JUMP JUMPDEST PUSH1 0x0 PUSH20 0xFFFFFFFFFFFFFFFFFFFFFFFFFFFFFFFFFFFFFFFF DUP3 AND SWAP1 POP SWAP2 SWAP1 POP JUMP JUMPDEST PUSH1 0x0 DUP2 SWAP1 POP SWAP2 SWAP1 POP JUMP JUMPDEST PUSH1 0x0 PUSH2 0x1075 DUP3 PUSH2 0x1060 JUMP JUMPDEST SWAP1 POP SWAP2 SWAP1 POP JUMP JUMPDEST DUP3 DUP2 DUP4 CALLDATACOPY PUSH1 0x0 DUP4 DUP4 ADD MSTORE POP POP POP JUMP JUMPDEST PUSH1 0x0 JUMPDEST DUP4 DUP2 LT ISZERO PUSH2 0x10A9 JUMPI DUP1 DUP3 ADD MLOAD DUP2 DUP5 ADD MSTORE PUSH1 0x20 DUP2 ADD SWAP1 POP PUSH2 0x108E JUMP JUMPDEST DUP4 DUP2 GT ISZERO PUSH2 0x10B8 JUMPI PUSH1 0x0 DUP5 DUP5 ADD MSTORE JUMPDEST POP POP POP POP JUMP JUMPDEST PUSH1 0x0 PUSH1 0x2 DUP3 DIV SWAP1 POP PUSH1 0x1 DUP3 AND DUP1 PUSH2 0x10D6 JUMPI PUSH1 0x7F DUP3 AND SWAP2 POP JUMPDEST PUSH1 0x20 DUP3 LT DUP2 EQ ISZERO PUSH2 0x10EA JUMPI PUSH2 0x10E9 PUSH2 0x1150 JUMP JUMPDEST JUMPDEST POP SWAP2 SWAP1 POP JUMP JUMPDEST PUSH2 0x10F9 DUP3 PUSH2 0x11C2 JUMP JUMPDEST DUP2 ADD DUP2 DUP2 LT PUSH8 0xFFFFFFFFFFFFFFFF DUP3 GT OR ISZERO PUSH2 0x1118 JUMPI PUSH2 0x1117 PUSH2 0x117F JUMP JUMPDEST JUMPDEST DUP1 PUSH1 0x40 MSTORE POP POP POP JUMP JUMPDEST PUSH32 0x4E487B7100000000000000000000000000000000000000000000000000000000 PUSH1 0x0 MSTORE PUSH1 0x11 PUSH1 0x4 MSTORE PUSH1 0x24 PUSH1 0x0 REVERT JUMPDEST PUSH32 0x4E487B7100000000000000000000000000000000000000000000000000000000 PUSH1 0x0 MSTORE PUSH1 0x22 PUSH1 0x4 MSTORE PUSH1 0x24 PUSH1 0x0 REVERT JUMPDEST PUSH32 0x4E487B7100000000000000000000000000000000000000000000000000000000 PUSH1 0x0 MSTORE PUSH1 0x41 PUSH1 0x4 MSTORE PUSH1 0x24 PUSH1 0x0 REVERT JUMPDEST PUSH1 0x0 DUP1 REVERT JUMPDEST PUSH1 0x0 DUP1 REVERT JUMPDEST PUSH1 0x0 DUP1 REVERT JUMPDEST PUSH1 0x0 DUP1 REVERT JUMPDEST PUSH1 0x0 PUSH1 0x1F NOT PUSH1 0x1F DUP4 ADD AND SWAP1 POP SWAP2 SWAP1 POP JUMP JUMPDEST PUSH32 0x706C65617365206465706F736974206174206C65617374203130207765690000 PUSH1 0x0 DUP3 ADD MSTORE POP JUMP JUMPDEST PUSH32 0x62616C616E6365206973206C6F77000000000000000000000000000000000000 PUSH1 0x0 DUP3 ADD MSTORE POP JUMP JUMPDEST PUSH32 0x4E6F74206F776E65720000000000000000000000000000000000000000000000 PUSH1 0x0 DUP3 ADD MSTORE POP JUMP JUMPDEST PUSH2 0x1257 DUP2 PUSH2 0x1010 JUMP JUMPDEST DUP2 EQ PUSH2 0x1262 JUMPI PUSH1 0x0 DUP1 REVERT JUMPDEST POP JUMP JUMPDEST PUSH2 0x126E DUP2 PUSH2 0x1022 JUMP JUMPDEST DUP2 EQ PUSH2 0x1279 JUMPI PUSH1 0x0 DUP1 REVERT JUMPDEST POP JUMP JUMPDEST PUSH2 0x1285 DUP2 PUSH2 0x102E JUMP JUMPDEST DUP2 EQ PUSH2 0x1290 JUMPI PUSH1 0x0 DUP1 REVERT JUMPDEST POP JUMP JUMPDEST PUSH2 0x129C DUP2 PUSH2 0x1060 JUMP JUMPDEST DUP2 EQ PUSH2 0x12A7 JUMPI PUSH1 0x0 DUP1 REVERT JUMPDEST POP JUMP INVALID LOG2 PUSH5 0x6970667358 0x22 SLT KECCAK256 CALLCODE REVERT 0x1F DUP15 DIFFICULTY DUP7 0xBC DIV 0xC4 0xC SELFBALANCE 0xBE SWAP6 0xCC 0xEC EXTCODECOPY PUSH15 0x3B5077BE7F4B4D18C61C9622C0AEEE PUSH5 0x736F6C6343 STOP ADDMOD SMOD STOP CALLER "
				},
				"gasEstimates": {
					"creation": {
						"codeDepositCost": "966400",
						"executionCost": "25267",
						"totalCost": "991667"
					},
					"external": {
						"balance()": "2517",
						"getData()": "infinite",
						"getDonateByIDandAdress(uint256,address)": "infinite",
						"getTotalDonations()": "2481",
						"helpSMA(uint256,string,string,address)": "infinite",
						"withdrawDonates()": "infinite"
					}
				},
				"methodIdentifiers": {
					"balance()": "b69ef8a8",
					"getData()": "3bc5de30",
					"getDonateByIDandAdress(uint256,address)": "8585b788",
					"getTotalDonations()": "777c658f",
					"helpSMA(uint256,string,string,address)": "1a67ddb8",
					"withdrawDonates()": "62adf922"
				}
			},
			"storageLayout": {
				"storage": [
					{
						"astId": 735,
						"contract": "contracts/4_smaDonate.sol:helpSmaKids",
						"label": "getDonateByIDandAdress",
						"offset": 0,
						"slot": "0",
						"type": "t_mapping(t_uint256,t_mapping(t_address,t_uint256))"
					},
					{
						"astId": 737,
						"contract": "contracts/4_smaDonate.sol:helpSmaKids",
						"label": "owner",
						"offset": 0,
						"slot": "1",
						"type": "t_address_payable"
					},
					{
						"astId": 739,
						"contract": "contracts/4_smaDonate.sol:helpSmaKids",
						"label": "totalAmount",
						"offset": 0,
						"slot": "2",
						"type": "t_uint256"
					},
					{
						"astId": 741,
						"contract": "contracts/4_smaDonate.sol:helpSmaKids",
						"label": "balance",
						"offset": 0,
						"slot": "3",
						"type": "t_uint256"
					},
					{
						"astId": 745,
						"contract": "contracts/4_smaDonate.sol:helpSmaKids",
						"label": "datas",
						"offset": 0,
						"slot": "4",
						"type": "t_array(t_struct(Data)729_storage)dyn_storage"
					}
				],
				"types": {
					"t_address": {
						"encoding": "inplace",
						"label": "address",
						"numberOfBytes": "20"
					},
					"t_address_payable": {
						"encoding": "inplace",
						"label": "address payable",
						"numberOfBytes": "20"
					},
					"t_array(t_struct(Data)729_storage)dyn_storage": {
						"base": "t_struct(Data)729_storage",
						"encoding": "dynamic_array",
						"label": "struct helpSmaKids.Data[]",
						"numberOfBytes": "32"
					},
					"t_mapping(t_address,t_uint256)": {
						"encoding": "mapping",
						"key": "t_address",
						"label": "mapping(address => uint256)",
						"numberOfBytes": "32",
						"value": "t_uint256"
					},
					"t_mapping(t_uint256,t_mapping(t_address,t_uint256))": {
						"encoding": "mapping",
						"key": "t_uint256",
						"label": "mapping(uint256 => mapping(address => uint256))",
						"numberOfBytes": "32",
						"value": "t_mapping(t_address,t_uint256)"
					},
					"t_string_storage": {
						"encoding": "bytes",
						"label": "string",
						"numberOfBytes": "32"
					},
					"t_struct(Data)729_storage": {
						"encoding": "inplace",
						"label": "struct helpSmaKids.Data",
						"members": [
							{
								"astId": 720,
								"contract": "contracts/4_smaDonate.sol:helpSmaKids",
								"label": "from",
								"offset": 0,
								"slot": "0",
								"type": "t_address"
							},
							{
								"astId": 722,
								"contract": "contracts/4_smaDonate.sol:helpSmaKids",
								"label": "timestamp",
								"offset": 0,
								"slot": "1",
								"type": "t_uint256"
							},
							{
								"astId": 724,
								"contract": "contracts/4_smaDonate.sol:helpSmaKids",
								"label": "name",
								"offset": 0,
								"slot": "2",
								"type": "t_string_storage"
							},
							{
								"astId": 726,
								"contract": "contracts/4_smaDonate.sol:helpSmaKids",
								"label": "message",
								"offset": 0,
								"slot": "3",
								"type": "t_string_storage"
							},
							{
								"astId": 728,
								"contract": "contracts/4_smaDonate.sol:helpSmaKids",
								"label": "value",
								"offset": 0,
								"slot": "4",
								"type": "t_uint256"
							}
						],
						"numberOfBytes": "160"
					},
					"t_uint256": {
						"encoding": "inplace",
						"label": "uint256",
						"numberOfBytes": "32"
					}
				}
			},
			"userdoc": {
				"kind": "user",
				"methods": {
					"getData()": {
						"notice": "fetches all stored datas"
					},
					"helpSMA(uint256,string,string,address)": {
						"notice": "_id id of donator  _name name of the donator  _message a nice message from the donator"
					},
					"withdrawDonates()": {
						"notice": "send the entire balance stored in this contract to the owner"
					}
				},
				"version": 1
			}
		}
	}
}